{
  "contractName": "UniversityManagement",
  "abi": [
    {
      "inputs": [
        {
          "internalType": "string",
          "name": "uniName",
          "type": "string"
        },
        {
          "internalType": "string",
          "name": "uniLocation",
          "type": "string"
        },
        {
          "internalType": "bool",
          "name": "accredited",
          "type": "bool"
        }
      ],
      "stateMutability": "nonpayable",
      "type": "constructor"
    },
    {
      "inputs": [],
      "name": "admin",
      "outputs": [
        {
          "internalType": "address",
          "name": "",
          "type": "address"
        }
      ],
      "stateMutability": "view",
      "type": "function",
      "constant": true
    },
    {
      "inputs": [
        {
          "internalType": "address",
          "name": "",
          "type": "address"
        }
      ],
      "name": "staffs",
      "outputs": [
        {
          "internalType": "address",
          "name": "wallet",
          "type": "address"
        },
        {
          "internalType": "string",
          "name": "ipfsHash",
          "type": "string"
        },
        {
          "internalType": "string",
          "name": "publicHash",
          "type": "string"
        },
        {
          "internalType": "string",
          "name": "docHash",
          "type": "string"
        },
        {
          "internalType": "string",
          "name": "employeeID",
          "type": "string"
        }
      ],
      "stateMutability": "view",
      "type": "function",
      "constant": true
    },
    {
      "inputs": [
        {
          "internalType": "address",
          "name": "",
          "type": "address"
        }
      ],
      "name": "students",
      "outputs": [
        {
          "internalType": "address",
          "name": "wallet",
          "type": "address"
        },
        {
          "internalType": "string",
          "name": "ipfsHash",
          "type": "string"
        },
        {
          "internalType": "string",
          "name": "acadHash",
          "type": "string"
        },
        {
          "internalType": "string",
          "name": "docHash",
          "type": "string"
        },
        {
          "internalType": "string",
          "name": "rollNo",
          "type": "string"
        }
      ],
      "stateMutability": "view",
      "type": "function",
      "constant": true
    },
    {
      "inputs": [],
      "name": "university",
      "outputs": [
        {
          "internalType": "string",
          "name": "name",
          "type": "string"
        },
        {
          "internalType": "string",
          "name": "location",
          "type": "string"
        },
        {
          "internalType": "bool",
          "name": "isAccredited",
          "type": "bool"
        }
      ],
      "stateMutability": "view",
      "type": "function",
      "constant": true
    },
    {
      "inputs": [
        {
          "internalType": "address",
          "name": "",
          "type": "address"
        },
        {
          "internalType": "uint256",
          "name": "",
          "type": "uint256"
        }
      ],
      "name": "userLogs",
      "outputs": [
        {
          "internalType": "address",
          "name": "victim",
          "type": "address"
        },
        {
          "internalType": "address",
          "name": "modifiedBy",
          "type": "address"
        },
        {
          "internalType": "string",
          "name": "ipfsHash",
          "type": "string"
        },
        {
          "internalType": "uint256",
          "name": "timestamp",
          "type": "uint256"
        }
      ],
      "stateMutability": "view",
      "type": "function",
      "constant": true
    },
    {
      "inputs": [
        {
          "internalType": "string",
          "name": "name",
          "type": "string"
        },
        {
          "internalType": "string",
          "name": "location",
          "type": "string"
        },
        {
          "internalType": "bool",
          "name": "accredited",
          "type": "bool"
        }
      ],
      "name": "updateUniversity",
      "outputs": [],
      "stateMutability": "nonpayable",
      "type": "function"
    },
    {
      "inputs": [
        {
          "internalType": "address",
          "name": "wallet",
          "type": "address"
        },
        {
          "internalType": "string",
          "name": "ipfsHash",
          "type": "string"
        },
        {
          "internalType": "string",
          "name": "publicHash",
          "type": "string"
        },
        {
          "internalType": "string",
          "name": "docHash",
          "type": "string"
        },
        {
          "internalType": "string",
          "name": "employeeID",
          "type": "string"
        }
      ],
      "name": "addStaff",
      "outputs": [],
      "stateMutability": "nonpayable",
      "type": "function"
    },
    {
      "inputs": [
        {
          "internalType": "address",
          "name": "wallet",
          "type": "address"
        },
        {
          "internalType": "string",
          "name": "ipfsHash",
          "type": "string"
        },
        {
          "internalType": "string",
          "name": "acadHash",
          "type": "string"
        },
        {
          "internalType": "string",
          "name": "docHash",
          "type": "string"
        },
        {
          "internalType": "string",
          "name": "rollNo",
          "type": "string"
        }
      ],
      "name": "addStudent",
      "outputs": [],
      "stateMutability": "nonpayable",
      "type": "function"
    },
    {
      "inputs": [
        {
          "internalType": "string",
          "name": "employeeID",
          "type": "string"
        }
      ],
      "name": "getStaffByEmployeeID",
      "outputs": [
        {
          "components": [
            {
              "internalType": "address",
              "name": "wallet",
              "type": "address"
            },
            {
              "internalType": "string",
              "name": "ipfsHash",
              "type": "string"
            },
            {
              "internalType": "string",
              "name": "publicHash",
              "type": "string"
            },
            {
              "internalType": "string",
              "name": "docHash",
              "type": "string"
            },
            {
              "internalType": "string",
              "name": "employeeID",
              "type": "string"
            }
          ],
          "internalType": "struct UniversityManagement.Staff",
          "name": "",
          "type": "tuple"
        }
      ],
      "stateMutability": "view",
      "type": "function",
      "constant": true
    },
    {
      "inputs": [
        {
          "internalType": "string",
          "name": "rollNo",
          "type": "string"
        }
      ],
      "name": "getStudentByRollNo",
      "outputs": [
        {
          "components": [
            {
              "internalType": "address",
              "name": "wallet",
              "type": "address"
            },
            {
              "internalType": "string",
              "name": "ipfsHash",
              "type": "string"
            },
            {
              "internalType": "string",
              "name": "acadHash",
              "type": "string"
            },
            {
              "internalType": "string",
              "name": "docHash",
              "type": "string"
            },
            {
              "internalType": "string",
              "name": "rollNo",
              "type": "string"
            }
          ],
          "internalType": "struct UniversityManagement.Student",
          "name": "",
          "type": "tuple"
        }
      ],
      "stateMutability": "view",
      "type": "function",
      "constant": true
    },
    {
      "inputs": [
        {
          "internalType": "address",
          "name": "target",
          "type": "address"
        },
        {
          "internalType": "string",
          "name": "ipfsHash",
          "type": "string"
        },
        {
          "internalType": "string",
          "name": "publicHash",
          "type": "string"
        },
        {
          "internalType": "string",
          "name": "docHash",
          "type": "string"
        },
        {
          "internalType": "string",
          "name": "employeeID",
          "type": "string"
        }
      ],
      "name": "updateStaff",
      "outputs": [],
      "stateMutability": "nonpayable",
      "type": "function"
    },
    {
      "inputs": [
        {
          "internalType": "address",
          "name": "target",
          "type": "address"
        },
        {
          "internalType": "string",
          "name": "ipfsHash",
          "type": "string"
        },
        {
          "internalType": "string",
          "name": "acadHash",
          "type": "string"
        },
        {
          "internalType": "string",
          "name": "docHash",
          "type": "string"
        },
        {
          "internalType": "string",
          "name": "rollNo",
          "type": "string"
        }
      ],
      "name": "updateStudent",
      "outputs": [],
      "stateMutability": "nonpayable",
      "type": "function"
    },
    {
      "inputs": [
        {
          "internalType": "address",
          "name": "wallet",
          "type": "address"
        }
      ],
      "name": "getStaff",
      "outputs": [
        {
          "components": [
            {
              "internalType": "address",
              "name": "wallet",
              "type": "address"
            },
            {
              "internalType": "string",
              "name": "ipfsHash",
              "type": "string"
            },
            {
              "internalType": "string",
              "name": "publicHash",
              "type": "string"
            },
            {
              "internalType": "string",
              "name": "docHash",
              "type": "string"
            },
            {
              "internalType": "string",
              "name": "employeeID",
              "type": "string"
            }
          ],
          "internalType": "struct UniversityManagement.Staff",
          "name": "",
          "type": "tuple"
        }
      ],
      "stateMutability": "view",
      "type": "function",
      "constant": true
    },
    {
      "inputs": [
        {
          "internalType": "address",
          "name": "wallet",
          "type": "address"
        }
      ],
      "name": "getStudent",
      "outputs": [
        {
          "components": [
            {
              "internalType": "address",
              "name": "wallet",
              "type": "address"
            },
            {
              "internalType": "string",
              "name": "ipfsHash",
              "type": "string"
            },
            {
              "internalType": "string",
              "name": "acadHash",
              "type": "string"
            },
            {
              "internalType": "string",
              "name": "docHash",
              "type": "string"
            },
            {
              "internalType": "string",
              "name": "rollNo",
              "type": "string"
            }
          ],
          "internalType": "struct UniversityManagement.Student",
          "name": "",
          "type": "tuple"
        }
      ],
      "stateMutability": "view",
      "type": "function",
      "constant": true
    },
    {
      "inputs": [
        {
          "internalType": "address",
          "name": "wallet",
          "type": "address"
        }
      ],
      "name": "isAdmin",
      "outputs": [
        {
          "internalType": "bool",
          "name": "",
          "type": "bool"
        }
      ],
      "stateMutability": "view",
      "type": "function",
      "constant": true
    },
    {
      "inputs": [
        {
          "internalType": "address",
          "name": "wallet",
          "type": "address"
        }
      ],
      "name": "isStaff",
      "outputs": [
        {
          "internalType": "bool",
          "name": "",
          "type": "bool"
        }
      ],
      "stateMutability": "view",
      "type": "function",
      "constant": true
    },
    {
      "inputs": [
        {
          "internalType": "address",
          "name": "wallet",
          "type": "address"
        }
      ],
      "name": "isStudent",
      "outputs": [
        {
          "internalType": "bool",
          "name": "",
          "type": "bool"
        }
      ],
      "stateMutability": "view",
      "type": "function",
      "constant": true
    },
    {
      "inputs": [
        {
          "internalType": "address",
          "name": "victim",
          "type": "address"
        },
        {
          "internalType": "string",
          "name": "ipfsHash",
          "type": "string"
        }
      ],
      "name": "addLog",
      "outputs": [],
      "stateMutability": "nonpayable",
      "type": "function"
    },
    {
      "inputs": [
        {
          "internalType": "address",
          "name": "victimAddress",
          "type": "address"
        }
      ],
      "name": "getLogs",
      "outputs": [
        {
          "components": [
            {
              "internalType": "address",
              "name": "victim",
              "type": "address"
            },
            {
              "internalType": "address",
              "name": "modifiedBy",
              "type": "address"
            },
            {
              "internalType": "string",
              "name": "ipfsHash",
              "type": "string"
            },
            {
              "internalType": "uint256",
              "name": "timestamp",
              "type": "uint256"
            }
          ],
          "internalType": "struct UniversityManagement.Log[]",
          "name": "",
          "type": "tuple[]"
        }
      ],
      "stateMutability": "view",
      "type": "function",
      "constant": true
    }
  ],
  "bytecode": "0x60806040523480156200001157600080fd5b5060405162004b0c38038062004b0c8339818101604052810190620000379190620002c2565b33600760006101000a81548173ffffffffffffffffffffffffffffffffffffffff021916908373ffffffffffffffffffffffffffffffffffffffff1602179055506040518060600160405280848152602001838152602001821515815250600080820151816000019081620000ad9190620005a7565b506020820151816001019081620000c59190620005a7565b5060408201518160020160006101000a81548160ff0219169083151502179055509050505050506200068e565b6000604051905090565b600080fd5b600080fd5b600080fd5b600080fd5b6000601f19601f8301169050919050565b7f4e487b7100000000000000000000000000000000000000000000000000000000600052604160045260246000fd5b6200015b8262000110565b810181811067ffffffffffffffff821117156200017d576200017c62000121565b5b80604052505050565b600062000192620000f2565b9050620001a0828262000150565b919050565b600067ffffffffffffffff821115620001c357620001c262000121565b5b620001ce8262000110565b9050602081019050919050565b60005b83811015620001fb578082015181840152602081019050620001de565b60008484015250505050565b60006200021e6200021884620001a5565b62000186565b9050828152602081018484840111156200023d576200023c6200010b565b5b6200024a848285620001db565b509392505050565b600082601f8301126200026a576200026962000106565b5b81516200027c84826020860162000207565b91505092915050565b60008115159050919050565b6200029c8162000285565b8114620002a857600080fd5b50565b600081519050620002bc8162000291565b92915050565b600080600060608486031215620002de57620002dd620000fc565b5b600084015167ffffffffffffffff811115620002ff57620002fe62000101565b5b6200030d8682870162000252565b935050602084015167ffffffffffffffff81111562000331576200033062000101565b5b6200033f8682870162000252565b92505060406200035286828701620002ab565b9150509250925092565b600081519050919050565b7f4e487b7100000000000000000000000000000000000000000000000000000000600052602260045260246000fd5b60006002820490506001821680620003af57607f821691505b602082108103620003c557620003c462000367565b5b50919050565b60008190508160005260206000209050919050565b60006020601f8301049050919050565b600082821b905092915050565b6000600883026200042f7fffffffffffffffffffffffffffffffffffffffffffffffffffffffffffffffff82620003f0565b6200043b8683620003f0565b95508019841693508086168417925050509392505050565b6000819050919050565b6000819050919050565b600062000488620004826200047c8462000453565b6200045d565b62000453565b9050919050565b6000819050919050565b620004a48362000467565b620004bc620004b3826200048f565b848454620003fd565b825550505050565b600090565b620004d3620004c4565b620004e081848462000499565b505050565b5b818110156200050857620004fc600082620004c9565b600181019050620004e6565b5050565b601f82111562000557576200052181620003cb565b6200052c84620003e0565b810160208510156200053c578190505b620005546200054b85620003e0565b830182620004e5565b50505b505050565b600082821c905092915050565b60006200057c600019846008026200055c565b1980831691505092915050565b600062000597838362000569565b9150826002028217905092915050565b620005b2826200035c565b67ffffffffffffffff811115620005ce57620005cd62000121565b5b620005da825462000396565b620005e78282856200050c565b600060209050601f8311600181146200061f57600084156200060a578287015190505b62000616858262000589565b86555062000686565b601f1984166200062f86620003cb565b60005b82811015620006595784890151825560018201915060208501945060208101905062000632565b8683101562000679578489015162000675601f89168262000569565b8355505b6001600288020188555050505b505050505050565b61446e806200069e6000396000f3fe608060405234801561001057600080fd5b50600436106101215760003560e01c8063ac6c54fd116100ad578063d1c5f70c11610071578063d1c5f70c14610371578063ddd795041461038d578063e3142217146103bd578063f42b53cf146103d9578063f851a4401461040957610121565b8063ac6c54fd146102b5578063ae12894e146102d1578063b7ee0adc146102f1578063ca3757b214610325578063cb510e971461034157610121565b80636a6ffec2116100f45780636a6ffec2146101c15780636b7b44d7146101f157806382f7d39214610221578063a1c0220b14610251578063a6c807a91461028157610121565b80631b7dd0c11461012657806324d7806c1461014257806357533f01146101725780636039254e146101a5575b600080fd5b610140600480360381019061013b919061322f565b610427565b005b61015c6004803603810190610157919061328b565b610997565b60405161016991906132d3565b60405180910390f35b61018c60048036038101906101879190613324565b6109f1565b60405161019c9493929190613401565b60405180910390f35b6101bf60048036038101906101ba919061344d565b610b06565b005b6101db60048036038101906101d69190613538565b610d2f565b6040516101e89190613665565b60405180910390f35b61020b6004803603810190610206919061328b565b611169565b6040516102189190613712565b60405180910390f35b61023b6004803603810190610236919061328b565b611528565b60405161024891906132d3565b60405180910390f35b61026b60048036038101906102669190613538565b611582565b6040516102789190613712565b60405180910390f35b61029b6004803603810190610296919061328b565b6119bc565b6040516102ac959493929190613734565b60405180910390f35b6102cf60048036038101906102ca919061344d565b611c32565b005b6102d9611e49565b6040516102e8939291906137a3565b60405180910390f35b61030b6004803603810190610306919061328b565b611f7e565b60405161031c959493929190613734565b60405180910390f35b61033f600480360381019061033a9190613814565b6121f4565b005b61035b6004803603810190610356919061328b565b6122cb565b60405161036891906132d3565b60405180910390f35b61038b6004803603810190610386919061344d565b612325565b005b6103a760048036038101906103a2919061328b565b612675565b6040516103b49190613665565b60405180910390f35b6103d760048036038101906103d2919061344d565b612a34565b005b6103f360048036038101906103ee919061328b565b612d84565b60405161040091906139d3565b60405180910390f35b610411612f6a565b60405161041e91906139f5565b60405180910390f35b81600760009054906101000a900473ffffffffffffffffffffffffffffffffffffffff1673ffffffffffffffffffffffffffffffffffffffff163373ffffffffffffffffffffffffffffffffffffffff1614806104af57508073ffffffffffffffffffffffffffffffffffffffff163373ffffffffffffffffffffffffffffffffffffffff16145b6104ee576040517f08c379a00000000000000000000000000000000000000000000000000000000081526004016104e590613a82565b60405180910390fd5b600060405180608001604052808573ffffffffffffffffffffffffffffffffffffffff1681526020013373ffffffffffffffffffffffffffffffffffffffff168152602001848152602001428152509050600860008573ffffffffffffffffffffffffffffffffffffffff1673ffffffffffffffffffffffffffffffffffffffff16815260200190815260200160002081908060018154018082558091505060019003906000526020600020906004020160009091909190915060008201518160000160006101000a81548173ffffffffffffffffffffffffffffffffffffffff021916908373ffffffffffffffffffffffffffffffffffffffff16021790555060208201518160010160006101000a81548173ffffffffffffffffffffffffffffffffffffffff021916908373ffffffffffffffffffffffffffffffffffffffff160217905550604082015181600201908161064b9190613cae565b50606082015181600301555050600a600860008673ffffffffffffffffffffffffffffffffffffffff1673ffffffffffffffffffffffffffffffffffffffff168152602001908152602001600020805490501115610991576000600190505b600860008673ffffffffffffffffffffffffffffffffffffffff1673ffffffffffffffffffffffffffffffffffffffff168152602001908152602001600020805490508110156108c157600860008673ffffffffffffffffffffffffffffffffffffffff1673ffffffffffffffffffffffffffffffffffffffff168152602001908152602001600020818154811061074557610744613d80565b5b9060005260206000209060040201600860008773ffffffffffffffffffffffffffffffffffffffff1673ffffffffffffffffffffffffffffffffffffffff16815260200190815260200160002060018361079f9190613dde565b815481106107b0576107af613d80565b5b90600052602060002090600402016000820160009054906101000a900473ffffffffffffffffffffffffffffffffffffffff168160000160006101000a81548173ffffffffffffffffffffffffffffffffffffffff021916908373ffffffffffffffffffffffffffffffffffffffff1602179055506001820160009054906101000a900473ffffffffffffffffffffffffffffffffffffffff168160010160006101000a81548173ffffffffffffffffffffffffffffffffffffffff021916908373ffffffffffffffffffffffffffffffffffffffff160217905550600282018160020190816108a09190613e28565b506003820154816003015590505080806108b990613f10565b9150506106aa565b50600860008573ffffffffffffffffffffffffffffffffffffffff1673ffffffffffffffffffffffffffffffffffffffff16815260200190815260200160002080548061091157610910613f58565b5b6001900381819060005260206000209060040201600080820160006101000a81549073ffffffffffffffffffffffffffffffffffffffff02191690556001820160006101000a81549073ffffffffffffffffffffffffffffffffffffffff02191690556002820160006109849190612f90565b6003820160009055505090555b50505050565b6000600760009054906101000a900473ffffffffffffffffffffffffffffffffffffffff1673ffffffffffffffffffffffffffffffffffffffff168273ffffffffffffffffffffffffffffffffffffffff16149050919050565b60086020528160005260406000208181548110610a0d57600080fd5b9060005260206000209060040201600091509150508060000160009054906101000a900473ffffffffffffffffffffffffffffffffffffffff16908060010160009054906101000a900473ffffffffffffffffffffffffffffffffffffffff1690806002018054610a7d90613ad1565b80601f0160208091040260200160405190810160405280929190818152602001828054610aa990613ad1565b8015610af65780601f10610acb57610100808354040283529160200191610af6565b820191906000526020600020905b815481529060010190602001808311610ad957829003601f168201915b5050505050908060030154905084565b600760009054906101000a900473ffffffffffffffffffffffffffffffffffffffff1673ffffffffffffffffffffffffffffffffffffffff163373ffffffffffffffffffffffffffffffffffffffff1603610c3f576000600360008773ffffffffffffffffffffffffffffffffffffffff1673ffffffffffffffffffffffffffffffffffffffff16815260200190815260200160002090506000816001018054610baf90613ad1565b905011610bf1576040517f08c379a0000000000000000000000000000000000000000000000000000000008152600401610be890613fd3565b60405180910390fd5b84816001019081610c029190613cae565b5083816002019081610c149190613cae565b5082816003019081610c269190613cae565b5081816004019081610c389190613cae565b5050610d28565b8473ffffffffffffffffffffffffffffffffffffffff163373ffffffffffffffffffffffffffffffffffffffff1614610cad576040517f08c379a0000000000000000000000000000000000000000000000000000000008152600401610ca49061403f565b60405180910390fd5b6000600360003373ffffffffffffffffffffffffffffffffffffffff1673ffffffffffffffffffffffffffffffffffffffff168152602001908152602001600020905084816001019081610d019190613cae565b5083816002019081610d139190613cae565b5081816004019081610d259190613cae565b50505b5050505050565b610d37612fd0565b600760009054906101000a900473ffffffffffffffffffffffffffffffffffffffff1673ffffffffffffffffffffffffffffffffffffffff163373ffffffffffffffffffffffffffffffffffffffff1614610dc7576040517f08c379a0000000000000000000000000000000000000000000000000000000008152600401610dbe906140d1565b60405180910390fd5b6000600583604051610dd9919061412d565b908152602001604051809103902060009054906101000a900473ffffffffffffffffffffffffffffffffffffffff169050600073ffffffffffffffffffffffffffffffffffffffff168173ffffffffffffffffffffffffffffffffffffffff1603610e79576040517f08c379a0000000000000000000000000000000000000000000000000000000008152600401610e7090614190565b60405180910390fd5b600360008273ffffffffffffffffffffffffffffffffffffffff1673ffffffffffffffffffffffffffffffffffffffff1681526020019081526020016000206040518060a00160405290816000820160009054906101000a900473ffffffffffffffffffffffffffffffffffffffff1673ffffffffffffffffffffffffffffffffffffffff1673ffffffffffffffffffffffffffffffffffffffff168152602001600182018054610f2990613ad1565b80601f0160208091040260200160405190810160405280929190818152602001828054610f5590613ad1565b8015610fa25780601f10610f7757610100808354040283529160200191610fa2565b820191906000526020600020905b815481529060010190602001808311610f8557829003601f168201915b50505050508152602001600282018054610fbb90613ad1565b80601f0160208091040260200160405190810160405280929190818152602001828054610fe790613ad1565b80156110345780601f1061100957610100808354040283529160200191611034565b820191906000526020600020905b81548152906001019060200180831161101757829003601f168201915b5050505050815260200160038201805461104d90613ad1565b80601f016020809104026020016040519081016040528092919081815260200182805461107990613ad1565b80156110c65780601f1061109b576101008083540402835291602001916110c6565b820191906000526020600020905b8154815290600101906020018083116110a957829003601f168201915b505050505081526020016004820180546110df90613ad1565b80601f016020809104026020016040519081016040528092919081815260200182805461110b90613ad1565b80156111585780601f1061112d57610100808354040283529160200191611158565b820191906000526020600020905b81548152906001019060200180831161113b57829003601f168201915b505050505081525050915050919050565b611171613015565b81600760009054906101000a900473ffffffffffffffffffffffffffffffffffffffff1673ffffffffffffffffffffffffffffffffffffffff163373ffffffffffffffffffffffffffffffffffffffff1614806111f957508073ffffffffffffffffffffffffffffffffffffffff163373ffffffffffffffffffffffffffffffffffffffff16145b611238576040517f08c379a000000000000000000000000000000000000000000000000000000000815260040161122f90613a82565b60405180910390fd5b600460008473ffffffffffffffffffffffffffffffffffffffff1673ffffffffffffffffffffffffffffffffffffffff1681526020019081526020016000206040518060a00160405290816000820160009054906101000a900473ffffffffffffffffffffffffffffffffffffffff1673ffffffffffffffffffffffffffffffffffffffff1673ffffffffffffffffffffffffffffffffffffffff1681526020016001820180546112e890613ad1565b80601f016020809104026020016040519081016040528092919081815260200182805461131490613ad1565b80156113615780601f1061133657610100808354040283529160200191611361565b820191906000526020600020905b81548152906001019060200180831161134457829003601f168201915b5050505050815260200160028201805461137a90613ad1565b80601f01602080910402602001604051908101604052809291908181526020018280546113a690613ad1565b80156113f35780601f106113c8576101008083540402835291602001916113f3565b820191906000526020600020905b8154815290600101906020018083116113d657829003601f168201915b5050505050815260200160038201805461140c90613ad1565b80601f016020809104026020016040519081016040528092919081815260200182805461143890613ad1565b80156114855780601f1061145a57610100808354040283529160200191611485565b820191906000526020600020905b81548152906001019060200180831161146857829003601f168201915b5050505050815260200160048201805461149e90613ad1565b80601f01602080910402602001604051908101604052809291908181526020018280546114ca90613ad1565b80156115175780601f106114ec57610100808354040283529160200191611517565b820191906000526020600020905b8154815290600101906020018083116114fa57829003601f168201915b505050505081525050915050919050565b600080600460008473ffffffffffffffffffffffffffffffffffffffff1673ffffffffffffffffffffffffffffffffffffffff168152602001908152602001600020600101805461157890613ad1565b9050119050919050565b61158a613015565b600760009054906101000a900473ffffffffffffffffffffffffffffffffffffffff1673ffffffffffffffffffffffffffffffffffffffff163373ffffffffffffffffffffffffffffffffffffffff161461161a576040517f08c379a0000000000000000000000000000000000000000000000000000000008152600401611611906140d1565b60405180910390fd5b600060068360405161162c919061412d565b908152602001604051809103902060009054906101000a900473ffffffffffffffffffffffffffffffffffffffff169050600073ffffffffffffffffffffffffffffffffffffffff168173ffffffffffffffffffffffffffffffffffffffff16036116cc576040517f08c379a00000000000000000000000000000000000000000000000000000000081526004016116c3906141fc565b60405180910390fd5b600460008273ffffffffffffffffffffffffffffffffffffffff1673ffffffffffffffffffffffffffffffffffffffff1681526020019081526020016000206040518060a00160405290816000820160009054906101000a900473ffffffffffffffffffffffffffffffffffffffff1673ffffffffffffffffffffffffffffffffffffffff1673ffffffffffffffffffffffffffffffffffffffff16815260200160018201805461177c90613ad1565b80601f01602080910402602001604051908101604052809291908181526020018280546117a890613ad1565b80156117f55780601f106117ca576101008083540402835291602001916117f5565b820191906000526020600020905b8154815290600101906020018083116117d857829003601f168201915b5050505050815260200160028201805461180e90613ad1565b80601f016020809104026020016040519081016040528092919081815260200182805461183a90613ad1565b80156118875780601f1061185c57610100808354040283529160200191611887565b820191906000526020600020905b81548152906001019060200180831161186a57829003601f168201915b505050505081526020016003820180546118a090613ad1565b80601f01602080910402602001604051908101604052809291908181526020018280546118cc90613ad1565b80156119195780601f106118ee57610100808354040283529160200191611919565b820191906000526020600020905b8154815290600101906020018083116118fc57829003601f168201915b5050505050815260200160048201805461193290613ad1565b80601f016020809104026020016040519081016040528092919081815260200182805461195e90613ad1565b80156119ab5780601f10611980576101008083540402835291602001916119ab565b820191906000526020600020905b81548152906001019060200180831161198e57829003601f168201915b505050505081525050915050919050565b60046020528060005260406000206000915090508060000160009054906101000a900473ffffffffffffffffffffffffffffffffffffffff1690806001018054611a0590613ad1565b80601f0160208091040260200160405190810160405280929190818152602001828054611a3190613ad1565b8015611a7e5780601f10611a5357610100808354040283529160200191611a7e565b820191906000526020600020905b815481529060010190602001808311611a6157829003601f168201915b505050505090806002018054611a9390613ad1565b80601f0160208091040260200160405190810160405280929190818152602001828054611abf90613ad1565b8015611b0c5780601f10611ae157610100808354040283529160200191611b0c565b820191906000526020600020905b815481529060010190602001808311611aef57829003601f168201915b505050505090806003018054611b2190613ad1565b80601f0160208091040260200160405190810160405280929190818152602001828054611b4d90613ad1565b8015611b9a5780601f10611b6f57610100808354040283529160200191611b9a565b820191906000526020600020905b815481529060010190602001808311611b7d57829003601f168201915b505050505090806004018054611baf90613ad1565b80601f0160208091040260200160405190810160405280929190818152602001828054611bdb90613ad1565b8015611c285780601f10611bfd57610100808354040283529160200191611c28565b820191906000526020600020905b815481529060010190602001808311611c0b57829003601f168201915b5050505050905085565b600760009054906101000a900473ffffffffffffffffffffffffffffffffffffffff1673ffffffffffffffffffffffffffffffffffffffff163373ffffffffffffffffffffffffffffffffffffffff1603611d6b576000600460008773ffffffffffffffffffffffffffffffffffffffff1673ffffffffffffffffffffffffffffffffffffffff16815260200190815260200160002090506000816001018054611cdb90613ad1565b905011611d1d576040517f08c379a0000000000000000000000000000000000000000000000000000000008152600401611d1490614268565b60405180910390fd5b84816001019081611d2e9190613cae565b5083816002019081611d409190613cae565b5082816003019081611d529190613cae565b5081816004019081611d649190613cae565b5050611e42565b8473ffffffffffffffffffffffffffffffffffffffff163373ffffffffffffffffffffffffffffffffffffffff1614611dd9576040517f08c379a0000000000000000000000000000000000000000000000000000000008152600401611dd09061403f565b60405180910390fd5b6000600460003373ffffffffffffffffffffffffffffffffffffffff1673ffffffffffffffffffffffffffffffffffffffff168152602001908152602001600020905084816001019081611e2d9190613cae565b5081816004019081611e3f9190613cae565b50505b5050505050565b6000806000018054611e5a90613ad1565b80601f0160208091040260200160405190810160405280929190818152602001828054611e8690613ad1565b8015611ed35780601f10611ea857610100808354040283529160200191611ed3565b820191906000526020600020905b815481529060010190602001808311611eb657829003601f168201915b505050505090806001018054611ee890613ad1565b80601f0160208091040260200160405190810160405280929190818152602001828054611f1490613ad1565b8015611f615780601f10611f3657610100808354040283529160200191611f61565b820191906000526020600020905b815481529060010190602001808311611f4457829003601f168201915b5050505050908060020160009054906101000a900460ff16905083565b60036020528060005260406000206000915090508060000160009054906101000a900473ffffffffffffffffffffffffffffffffffffffff1690806001018054611fc790613ad1565b80601f0160208091040260200160405190810160405280929190818152602001828054611ff390613ad1565b80156120405780601f1061201557610100808354040283529160200191612040565b820191906000526020600020905b81548152906001019060200180831161202357829003601f168201915b50505050509080600201805461205590613ad1565b80601f016020809104026020016040519081016040528092919081815260200182805461208190613ad1565b80156120ce5780601f106120a3576101008083540402835291602001916120ce565b820191906000526020600020905b8154815290600101906020018083116120b157829003601f168201915b5050505050908060030180546120e390613ad1565b80601f016020809104026020016040519081016040528092919081815260200182805461210f90613ad1565b801561215c5780601f106121315761010080835404028352916020019161215c565b820191906000526020600020905b81548152906001019060200180831161213f57829003601f168201915b50505050509080600401805461217190613ad1565b80601f016020809104026020016040519081016040528092919081815260200182805461219d90613ad1565b80156121ea5780601f106121bf576101008083540402835291602001916121ea565b820191906000526020600020905b8154815290600101906020018083116121cd57829003601f168201915b5050505050905085565b600760009054906101000a900473ffffffffffffffffffffffffffffffffffffffff1673ffffffffffffffffffffffffffffffffffffffff163373ffffffffffffffffffffffffffffffffffffffff1614612284576040517f08c379a000000000000000000000000000000000000000000000000000000000815260040161227b906140d1565b60405180910390fd5b826000800190816122959190613cae565b5081600060010190816122a89190613cae565b5080600060020160006101000a81548160ff021916908315150217905550505050565b600080600360008473ffffffffffffffffffffffffffffffffffffffff1673ffffffffffffffffffffffffffffffffffffffff168152602001908152602001600020600101805461231b90613ad1565b9050119050919050565b600760009054906101000a900473ffffffffffffffffffffffffffffffffffffffff1673ffffffffffffffffffffffffffffffffffffffff163373ffffffffffffffffffffffffffffffffffffffff16146123b5576040517f08c379a00000000000000000000000000000000000000000000000000000000081526004016123ac906140d1565b60405180910390fd5b6000600360008773ffffffffffffffffffffffffffffffffffffffff1673ffffffffffffffffffffffffffffffffffffffff168152602001908152602001600020600101805461240490613ad1565b905014612446576040517f08c379a000000000000000000000000000000000000000000000000000000000815260040161243d906142d4565b60405180910390fd5b600073ffffffffffffffffffffffffffffffffffffffff1660058260405161246e919061412d565b908152602001604051809103902060009054906101000a900473ffffffffffffffffffffffffffffffffffffffff1673ffffffffffffffffffffffffffffffffffffffff16146124f3576040517f08c379a00000000000000000000000000000000000000000000000000000000081526004016124ea90614340565b60405180910390fd5b6040518060a001604052808673ffffffffffffffffffffffffffffffffffffffff16815260200185815260200184815260200183815260200182815250600360008773ffffffffffffffffffffffffffffffffffffffff1673ffffffffffffffffffffffffffffffffffffffff16815260200190815260200160002060008201518160000160006101000a81548173ffffffffffffffffffffffffffffffffffffffff021916908373ffffffffffffffffffffffffffffffffffffffff16021790555060208201518160010190816125cb9190613cae565b5060408201518160020190816125e19190613cae565b5060608201518160030190816125f79190613cae565b50608082015181600401908161260d9190613cae565b5090505084600582604051612622919061412d565b908152602001604051809103902060006101000a81548173ffffffffffffffffffffffffffffffffffffffff021916908373ffffffffffffffffffffffffffffffffffffffff1602179055505050505050565b61267d612fd0565b81600760009054906101000a900473ffffffffffffffffffffffffffffffffffffffff1673ffffffffffffffffffffffffffffffffffffffff163373ffffffffffffffffffffffffffffffffffffffff16148061270557508073ffffffffffffffffffffffffffffffffffffffff163373ffffffffffffffffffffffffffffffffffffffff16145b612744576040517f08c379a000000000000000000000000000000000000000000000000000000000815260040161273b90613a82565b60405180910390fd5b600360008473ffffffffffffffffffffffffffffffffffffffff1673ffffffffffffffffffffffffffffffffffffffff1681526020019081526020016000206040518060a00160405290816000820160009054906101000a900473ffffffffffffffffffffffffffffffffffffffff1673ffffffffffffffffffffffffffffffffffffffff1673ffffffffffffffffffffffffffffffffffffffff1681526020016001820180546127f490613ad1565b80601f016020809104026020016040519081016040528092919081815260200182805461282090613ad1565b801561286d5780601f106128425761010080835404028352916020019161286d565b820191906000526020600020905b81548152906001019060200180831161285057829003601f168201915b5050505050815260200160028201805461288690613ad1565b80601f01602080910402602001604051908101604052809291908181526020018280546128b290613ad1565b80156128ff5780601f106128d4576101008083540402835291602001916128ff565b820191906000526020600020905b8154815290600101906020018083116128e257829003601f168201915b5050505050815260200160038201805461291890613ad1565b80601f016020809104026020016040519081016040528092919081815260200182805461294490613ad1565b80156129915780601f1061296657610100808354040283529160200191612991565b820191906000526020600020905b81548152906001019060200180831161297457829003601f168201915b505050505081526020016004820180546129aa90613ad1565b80601f01602080910402602001604051908101604052809291908181526020018280546129d690613ad1565b8015612a235780601f106129f857610100808354040283529160200191612a23565b820191906000526020600020905b815481529060010190602001808311612a0657829003601f168201915b505050505081525050915050919050565b600760009054906101000a900473ffffffffffffffffffffffffffffffffffffffff1673ffffffffffffffffffffffffffffffffffffffff163373ffffffffffffffffffffffffffffffffffffffff1614612ac4576040517f08c379a0000000000000000000000000000000000000000000000000000000008152600401612abb906140d1565b60405180910390fd5b6000600460008773ffffffffffffffffffffffffffffffffffffffff1673ffffffffffffffffffffffffffffffffffffffff1681526020019081526020016000206001018054612b1390613ad1565b905014612b55576040517f08c379a0000000000000000000000000000000000000000000000000000000008152600401612b4c906143ac565b60405180910390fd5b600073ffffffffffffffffffffffffffffffffffffffff16600682604051612b7d919061412d565b908152602001604051809103902060009054906101000a900473ffffffffffffffffffffffffffffffffffffffff1673ffffffffffffffffffffffffffffffffffffffff1614612c02576040517f08c379a0000000000000000000000000000000000000000000000000000000008152600401612bf990614418565b60405180910390fd5b6040518060a001604052808673ffffffffffffffffffffffffffffffffffffffff16815260200185815260200184815260200183815260200182815250600460008773ffffffffffffffffffffffffffffffffffffffff1673ffffffffffffffffffffffffffffffffffffffff16815260200190815260200160002060008201518160000160006101000a81548173ffffffffffffffffffffffffffffffffffffffff021916908373ffffffffffffffffffffffffffffffffffffffff1602179055506020820151816001019081612cda9190613cae565b506040820151816002019081612cf09190613cae565b506060820151816003019081612d069190613cae565b506080820151816004019081612d1c9190613cae565b5090505084600682604051612d31919061412d565b908152602001604051809103902060006101000a81548173ffffffffffffffffffffffffffffffffffffffff021916908373ffffffffffffffffffffffffffffffffffffffff1602179055505050505050565b6060600860008373ffffffffffffffffffffffffffffffffffffffff1673ffffffffffffffffffffffffffffffffffffffff168152602001908152602001600020805480602002602001604051908101604052809291908181526020016000905b82821015612f5f57838290600052602060002090600402016040518060800160405290816000820160009054906101000a900473ffffffffffffffffffffffffffffffffffffffff1673ffffffffffffffffffffffffffffffffffffffff1673ffffffffffffffffffffffffffffffffffffffff1681526020016001820160009054906101000a900473ffffffffffffffffffffffffffffffffffffffff1673ffffffffffffffffffffffffffffffffffffffff1673ffffffffffffffffffffffffffffffffffffffff168152602001600282018054612ec490613ad1565b80601f0160208091040260200160405190810160405280929190818152602001828054612ef090613ad1565b8015612f3d5780601f10612f1257610100808354040283529160200191612f3d565b820191906000526020600020905b815481529060010190602001808311612f2057829003601f168201915b5050505050815260200160038201548152505081526020019060010190612de5565b505050509050919050565b600760009054906101000a900473ffffffffffffffffffffffffffffffffffffffff1681565b508054612f9c90613ad1565b6000825580601f10612fae5750612fcd565b601f016020900490600052602060002090810190612fcc919061305a565b5b50565b6040518060a00160405280600073ffffffffffffffffffffffffffffffffffffffff168152602001606081526020016060815260200160608152602001606081525090565b6040518060a00160405280600073ffffffffffffffffffffffffffffffffffffffff168152602001606081526020016060815260200160608152602001606081525090565b5b8082111561307357600081600090555060010161305b565b5090565b6000604051905090565b600080fd5b600080fd5b600073ffffffffffffffffffffffffffffffffffffffff82169050919050565b60006130b68261308b565b9050919050565b6130c6816130ab565b81146130d157600080fd5b50565b6000813590506130e3816130bd565b92915050565b600080fd5b600080fd5b6000601f19601f8301169050919050565b7f4e487b7100000000000000000000000000000000000000000000000000000000600052604160045260246000fd5b61313c826130f3565b810181811067ffffffffffffffff8211171561315b5761315a613104565b5b80604052505050565b600061316e613077565b905061317a8282613133565b919050565b600067ffffffffffffffff82111561319a57613199613104565b5b6131a3826130f3565b9050602081019050919050565b82818337600083830152505050565b60006131d26131cd8461317f565b613164565b9050828152602081018484840111156131ee576131ed6130ee565b5b6131f98482856131b0565b509392505050565b600082601f830112613216576132156130e9565b5b81356132268482602086016131bf565b91505092915050565b6000806040838503121561324657613245613081565b5b6000613254858286016130d4565b925050602083013567ffffffffffffffff81111561327557613274613086565b5b61328185828601613201565b9150509250929050565b6000602082840312156132a1576132a0613081565b5b60006132af848285016130d4565b91505092915050565b60008115159050919050565b6132cd816132b8565b82525050565b60006020820190506132e860008301846132c4565b92915050565b6000819050919050565b613301816132ee565b811461330c57600080fd5b50565b60008135905061331e816132f8565b92915050565b6000806040838503121561333b5761333a613081565b5b6000613349858286016130d4565b925050602061335a8582860161330f565b9150509250929050565b61336d816130ab565b82525050565b600081519050919050565b600082825260208201905092915050565b60005b838110156133ad578082015181840152602081019050613392565b60008484015250505050565b60006133c482613373565b6133ce818561337e565b93506133de81856020860161338f565b6133e7816130f3565b840191505092915050565b6133fb816132ee565b82525050565b60006080820190506134166000830187613364565b6134236020830186613364565b818103604083015261343581856133b9565b905061344460608301846133f2565b95945050505050565b600080600080600060a0868803121561346957613468613081565b5b6000613477888289016130d4565b955050602086013567ffffffffffffffff81111561349857613497613086565b5b6134a488828901613201565b945050604086013567ffffffffffffffff8111156134c5576134c4613086565b5b6134d188828901613201565b935050606086013567ffffffffffffffff8111156134f2576134f1613086565b5b6134fe88828901613201565b925050608086013567ffffffffffffffff81111561351f5761351e613086565b5b61352b88828901613201565b9150509295509295909350565b60006020828403121561354e5761354d613081565b5b600082013567ffffffffffffffff81111561356c5761356b613086565b5b61357884828501613201565b91505092915050565b61358a816130ab565b82525050565b600082825260208201905092915050565b60006135ac82613373565b6135b68185613590565b93506135c681856020860161338f565b6135cf816130f3565b840191505092915050565b600060a0830160008301516135f26000860182613581565b506020830151848203602086015261360a82826135a1565b9150506040830151848203604086015261362482826135a1565b9150506060830151848203606086015261363e82826135a1565b9150506080830151848203608086015261365882826135a1565b9150508091505092915050565b6000602082019050818103600083015261367f81846135da565b905092915050565b600060a08301600083015161369f6000860182613581565b50602083015184820360208601526136b782826135a1565b915050604083015184820360408601526136d182826135a1565b915050606083015184820360608601526136eb82826135a1565b9150506080830151848203608086015261370582826135a1565b9150508091505092915050565b6000602082019050818103600083015261372c8184613687565b905092915050565b600060a0820190506137496000830188613364565b818103602083015261375b81876133b9565b9050818103604083015261376f81866133b9565b9050818103606083015261378381856133b9565b9050818103608083015261379781846133b9565b90509695505050505050565b600060608201905081810360008301526137bd81866133b9565b905081810360208301526137d181856133b9565b90506137e060408301846132c4565b949350505050565b6137f1816132b8565b81146137fc57600080fd5b50565b60008135905061380e816137e8565b92915050565b60008060006060848603121561382d5761382c613081565b5b600084013567ffffffffffffffff81111561384b5761384a613086565b5b61385786828701613201565b935050602084013567ffffffffffffffff81111561387857613877613086565b5b61388486828701613201565b9250506040613895868287016137ff565b9150509250925092565b600081519050919050565b600082825260208201905092915050565b6000819050602082019050919050565b6138d4816132ee565b82525050565b60006080830160008301516138f26000860182613581565b5060208301516139056020860182613581565b506040830151848203604086015261391d82826135a1565b915050606083015161393260608601826138cb565b508091505092915050565b600061394983836138da565b905092915050565b6000602082019050919050565b60006139698261389f565b61397381856138aa565b935083602082028501613985856138bb565b8060005b858110156139c157848403895281516139a2858261393d565b94506139ad83613951565b925060208a01995050600181019050613989565b50829750879550505050505092915050565b600060208201905081810360008301526139ed818461395e565b905092915050565b6000602082019050613a0a6000830184613364565b92915050565b7f4f6e6c792061646d696e206f7220746865206f776e6572206f6620746869732060008201527f646174612063616e20706572666f726d207468697320616374696f6e00000000602082015250565b6000613a6c603c8361337e565b9150613a7782613a10565b604082019050919050565b60006020820190508181036000830152613a9b81613a5f565b9050919050565b7f4e487b7100000000000000000000000000000000000000000000000000000000600052602260045260246000fd5b60006002820490506001821680613ae957607f821691505b602082108103613afc57613afb613aa2565b5b50919050565b60008190508160005260206000209050919050565b60006020601f8301049050919050565b600082821b905092915050565b600060088302613b647fffffffffffffffffffffffffffffffffffffffffffffffffffffffffffffffff82613b27565b613b6e8683613b27565b95508019841693508086168417925050509392505050565b6000819050919050565b6000613bab613ba6613ba1846132ee565b613b86565b6132ee565b9050919050565b6000819050919050565b613bc583613b90565b613bd9613bd182613bb2565b848454613b34565b825550505050565b600090565b613bee613be1565b613bf9818484613bbc565b505050565b5b81811015613c1d57613c12600082613be6565b600181019050613bff565b5050565b601f821115613c6257613c3381613b02565b613c3c84613b17565b81016020851015613c4b578190505b613c5f613c5785613b17565b830182613bfe565b50505b505050565b600082821c905092915050565b6000613c8560001984600802613c67565b1980831691505092915050565b6000613c9e8383613c74565b9150826002028217905092915050565b613cb782613373565b67ffffffffffffffff811115613cd057613ccf613104565b5b613cda8254613ad1565b613ce5828285613c21565b600060209050601f831160018114613d185760008415613d06578287015190505b613d108582613c92565b865550613d78565b601f198416613d2686613b02565b60005b82811015613d4e57848901518255600182019150602085019450602081019050613d29565b86831015613d6b5784890151613d67601f891682613c74565b8355505b6001600288020188555050505b505050505050565b7f4e487b7100000000000000000000000000000000000000000000000000000000600052603260045260246000fd5b7f4e487b7100000000000000000000000000000000000000000000000000000000600052601160045260246000fd5b6000613de9826132ee565b9150613df4836132ee565b9250828203905081811115613e0c57613e0b613daf565b5b92915050565b600081549050613e2181613ad1565b9050919050565b818103613e36575050613f0e565b613e3f82613e12565b67ffffffffffffffff811115613e5857613e57613104565b5b613e628254613ad1565b613e6d828285613c21565b6000601f831160018114613e9c5760008415613e8a578287015490505b613e948582613c92565b865550613f07565b601f198416613eaa87613b02565b9650613eb586613b02565b60005b82811015613edd57848901548255600182019150600185019450602081019050613eb8565b86831015613efa5784890154613ef6601f891682613c74565b8355505b6001600288020188555050505b5050505050505b565b6000613f1b826132ee565b91507fffffffffffffffffffffffffffffffffffffffffffffffffffffffffffffffff8203613f4d57613f4c613daf565b5b600182019050919050565b7f4e487b7100000000000000000000000000000000000000000000000000000000600052603160045260246000fd5b7f537461666620646f6573206e6f742065786973742e0000000000000000000000600082015250565b6000613fbd60158361337e565b9150613fc882613f87565b602082019050919050565b60006020820190508181036000830152613fec81613fb0565b9050919050565b7f4f6e6c792073656c662063616e2065646974207468697320646174612e000000600082015250565b6000614029601d8361337e565b915061403482613ff3565b602082019050919050565b600060208201905081810360008301526140588161401c565b9050919050565b7f4f6e6c792061646d696e2063616e20706572666f726d2074686973206163746960008201527f6f6e000000000000000000000000000000000000000000000000000000000000602082015250565b60006140bb60228361337e565b91506140c68261405f565b604082019050919050565b600060208201905081810360008301526140ea816140ae565b9050919050565b600081905092915050565b600061410782613373565b61411181856140f1565b935061412181856020860161338f565b80840191505092915050565b600061413982846140fc565b915081905092915050565b7f5374616666206e6f7420666f756e640000000000000000000000000000000000600082015250565b600061417a600f8361337e565b915061418582614144565b602082019050919050565b600060208201905081810360008301526141a98161416d565b9050919050565b7f53747564656e74206e6f7420666f756e64000000000000000000000000000000600082015250565b60006141e660118361337e565b91506141f1826141b0565b602082019050919050565b60006020820190508181036000830152614215816141d9565b9050919050565b7f53747564656e7420646f6573206e6f742065786973742e000000000000000000600082015250565b600061425260178361337e565b915061425d8261421c565b602082019050919050565b6000602082019050818103600083015261428181614245565b9050919050565b7f537461666620616c7265616479206578697374732e0000000000000000000000600082015250565b60006142be60158361337e565b91506142c982614288565b602082019050919050565b600060208201905081810360008301526142ed816142b1565b9050919050565b7f456d706c6f79656520494420616c726561647920696e207573652e0000000000600082015250565b600061432a601b8361337e565b9150614335826142f4565b602082019050919050565b600060208201905081810360008301526143598161431d565b9050919050565b7f53747564656e7420616c7265616479206578697374732e000000000000000000600082015250565b600061439660178361337e565b91506143a182614360565b602082019050919050565b600060208201905081810360008301526143c581614389565b9050919050565b7f526f6c6c206e756d62657220616c726561647920696e207573652e0000000000600082015250565b6000614402601b8361337e565b915061440d826143cc565b602082019050919050565b60006020820190508181036000830152614431816143f5565b905091905056fea26469706673582212201fc9b9cb4041891b99dc8f5d0ac6c08febb815bb7e9978ca8c4b31c53ca8fc2c64736f6c63430008120033",
  "immutableReferences": {},
  "source": "// SPDX-License-Identifier: MIT\r\npragma solidity ^0.8.0;\r\n\r\ncontract UniversityManagement {\r\n    struct University {\r\n        string name;\r\n        string location;\r\n        bool isAccredited;\r\n    }\r\n\r\n    struct Staff {\r\n        address wallet;\r\n        string ipfsHash;\r\n        string publicHash;\r\n        string docHash;\r\n        string employeeID;\r\n    }\r\n\r\n    struct Student {\r\n        address wallet;\r\n        string ipfsHash;\r\n        string acadHash;\r\n        string docHash;\r\n        string rollNo;\r\n    }\r\n\r\n    struct Log {\r\n        address victim;\r\n        address modifiedBy;\r\n        string ipfsHash;\r\n        uint256 timestamp;\r\n    }\r\n\r\n    University public university;\r\n    mapping(address => Staff) public staffs;\r\n    mapping(address => Student) public students;\r\n    mapping(string => address) private staffByEmployeeID;\r\n    mapping(string => address) private studentByRollNo;\r\n    address public admin;\r\n\r\n    modifier onlyAdmin() {\r\n        require(msg.sender == admin, \"Only admin can perform this action\");\r\n        _;\r\n    }\r\n\r\n    modifier onlySelfOrAdmin(address wallet) {\r\n        require(\r\n            msg.sender == admin || msg.sender == wallet,\r\n            \"Only admin or the owner of this data can perform this action\"\r\n        );\r\n        _;\r\n    }\r\n\r\n    constructor(string memory uniName, string memory uniLocation, bool accredited) {\r\n        admin = msg.sender;\r\n        university = University(uniName, uniLocation, accredited);\r\n        \r\n    }\r\n\r\n    function updateUniversity(string memory name, string memory location, bool accredited) public onlyAdmin {\r\n        university.name = name;\r\n        university.location = location;\r\n        university.isAccredited = accredited;\r\n        \r\n    }\r\n\r\n    function addStaff(\r\n        address wallet,\r\n        string memory ipfsHash,\r\n        string memory publicHash,\r\n        string memory docHash,\r\n        string memory employeeID\r\n    ) public onlyAdmin {\r\n        require(bytes(staffs[wallet].ipfsHash).length == 0, \"Staff already exists.\");\r\n        require(staffByEmployeeID[employeeID] == address(0), \"Employee ID already in use.\");\r\n        staffs[wallet] = Staff(wallet, ipfsHash, publicHash, docHash, employeeID);\r\n        staffByEmployeeID[employeeID] = wallet;\r\n        \r\n    }\r\n\r\n    function addStudent(\r\n        address wallet,\r\n        string memory ipfsHash,\r\n        string memory acadHash,\r\n        string memory docHash,\r\n        string memory rollNo\r\n    ) public onlyAdmin {\r\n        require(bytes(students[wallet].ipfsHash).length == 0, \"Student already exists.\");\r\n        require(studentByRollNo[rollNo] == address(0), \"Roll number already in use.\");\r\n        students[wallet] = Student(wallet, ipfsHash,acadHash,docHash, rollNo);\r\n        studentByRollNo[rollNo] = wallet;\r\n    }\r\n\r\n    function getStaffByEmployeeID(string memory employeeID) public view onlyAdmin returns (Staff memory) {\r\n        address staffAddress = staffByEmployeeID[employeeID];\r\n        require(staffAddress != address(0), \"Staff not found\");\r\n        return staffs[staffAddress];\r\n    }\r\n\r\n    function getStudentByRollNo(string memory rollNo) public view onlyAdmin returns (Student memory) {\r\n        address studentAddress = studentByRollNo[rollNo];\r\n        require(studentAddress != address(0), \"Student not found\");\r\n        return students[studentAddress];\r\n    }\r\n       function updateStaff(\r\n        address target,\r\n        string memory ipfsHash,\r\n        string memory publicHash,\r\n        string memory docHash,\r\n        string memory employeeID\r\n    ) public {\r\n        if (msg.sender == admin) {\r\n            Staff storage staff = staffs[target];\r\n            require(bytes(staff.ipfsHash).length > 0, \"Staff does not exist.\");\r\n            staff.ipfsHash = ipfsHash;\r\n            staff.publicHash = publicHash;\r\n            staff.docHash = docHash;\r\n            staff.employeeID = employeeID;\r\n        } else {\r\n            require(msg.sender == target, \"Only self can edit this data.\");\r\n            Staff storage staff = staffs[msg.sender];\r\n            staff.ipfsHash = ipfsHash;\r\n            staff.publicHash = publicHash;\r\n            staff.employeeID = employeeID;\r\n            \r\n        }\r\n    }\r\n\r\n    function updateStudent(\r\n        address target,\r\n        string memory ipfsHash,\r\n        string memory acadHash,\r\n        string memory docHash,\r\n        string memory rollNo\r\n    ) public {\r\n        if (msg.sender == admin) {\r\n            Student storage student = students[target];\r\n            require(bytes(student.ipfsHash).length > 0, \"Student does not exist.\");\r\n            student.ipfsHash = ipfsHash;\r\n            student.acadHash = acadHash;\r\n            student.docHash = docHash;\r\n            student.rollNo = rollNo;\r\n        } else {\r\n            require(msg.sender == target, \"Only self can edit this data.\");\r\n            Student storage student = students[msg.sender];\r\n            student.ipfsHash = ipfsHash;\r\n            student.rollNo = rollNo;\r\n        }\r\n    }\r\n\r\n     function getStaff(address wallet) public view onlySelfOrAdmin(wallet) returns (Staff memory) {\r\n        return staffs[wallet];\r\n    }\r\n\r\n    function getStudent(address wallet) public view onlySelfOrAdmin(wallet) returns (Student memory) {\r\n        return students[wallet];\r\n    }\r\n\r\n    function isAdmin(address wallet) public view returns (bool) {\r\n        return wallet == admin;\r\n    }\r\n\r\n    function isStaff(address wallet) public view returns (bool) {\r\n        return bytes(staffs[wallet].ipfsHash).length > 0;\r\n    }\r\n\r\n    function isStudent(address wallet) public view returns (bool) {\r\n        return bytes(students[wallet].ipfsHash).length > 0;\r\n    }\r\n\r\n    \r\n\r\n    mapping(address => Log[]) public userLogs;\r\n\r\n   \r\n\r\n    \r\n\r\n    function addLog(address victim, string memory ipfsHash) public onlySelfOrAdmin(victim) {\r\n        Log memory newLog = Log(victim, msg.sender, ipfsHash, block.timestamp);\r\n        userLogs[victim].push(newLog);\r\n\r\n        if (userLogs[victim].length > 10) {\r\n            for (uint256 i = 1; i < userLogs[victim].length; i++) {\r\n                userLogs[victim][i - 1] = userLogs[victim][i];\r\n            }\r\n            userLogs[victim].pop();\r\n        }\r\n    }\r\n\r\n    function getLogs(address victimAddress) public view returns (Log[] memory) {\r\n        return userLogs[victimAddress];\r\n    }\r\n}\r\n",
  "sourcePath": "D:\\dapp\\contracts\\UniversityManagement.sol",
  "compiler": {
    "name": "solc",
    "version": "0.8.18+commit.87f61d96.Emscripten.clang"
  },
  "schemaVersion": "3.4.16",
  "updatedAt": "2025-05-04T04:18:46.272Z",
  "networkType": "ethereum",
  "devdoc": {
    "kind": "dev",
    "methods": {},
    "version": 1
  },
  "userdoc": {
    "kind": "user",
    "methods": {},
    "version": 1
  }
}