{
  "contractName": "UniversityManagement",
  "abi": [
    {
      "inputs": [
        {
          "internalType": "string",
          "name": "uniName",
          "type": "string"
        },
        {
          "internalType": "string",
          "name": "uniLocation",
          "type": "string"
        },
        {
          "internalType": "bool",
          "name": "accredited",
          "type": "bool"
        }
      ],
      "stateMutability": "nonpayable",
      "type": "constructor"
    },
    {
      "inputs": [],
      "name": "admin",
      "outputs": [
        {
          "internalType": "address",
          "name": "",
          "type": "address"
        }
      ],
      "stateMutability": "view",
      "type": "function",
      "constant": true
    },
    {
      "inputs": [
        {
          "internalType": "address",
          "name": "",
          "type": "address"
        }
      ],
      "name": "staffs",
      "outputs": [
        {
          "internalType": "address",
          "name": "wallet",
          "type": "address"
        },
        {
          "internalType": "string",
          "name": "ipfsHash",
          "type": "string"
        },
        {
          "internalType": "string",
          "name": "docHash",
          "type": "string"
        },
        {
          "internalType": "string",
          "name": "employeeID",
          "type": "string"
        }
      ],
      "stateMutability": "view",
      "type": "function",
      "constant": true
    },
    {
      "inputs": [
        {
          "internalType": "address",
          "name": "",
          "type": "address"
        }
      ],
      "name": "students",
      "outputs": [
        {
          "internalType": "address",
          "name": "wallet",
          "type": "address"
        },
        {
          "internalType": "string",
          "name": "ipfsHash",
          "type": "string"
        },
        {
          "internalType": "string",
          "name": "docHash",
          "type": "string"
        },
        {
          "internalType": "string",
          "name": "rollNo",
          "type": "string"
        }
      ],
      "stateMutability": "view",
      "type": "function",
      "constant": true
    },
    {
      "inputs": [],
      "name": "university",
      "outputs": [
        {
          "internalType": "string",
          "name": "name",
          "type": "string"
        },
        {
          "internalType": "string",
          "name": "location",
          "type": "string"
        },
        {
          "internalType": "bool",
          "name": "isAccredited",
          "type": "bool"
        }
      ],
      "stateMutability": "view",
      "type": "function",
      "constant": true
    },
    {
      "inputs": [
        {
          "internalType": "address",
          "name": "",
          "type": "address"
        },
        {
          "internalType": "uint256",
          "name": "",
          "type": "uint256"
        }
      ],
      "name": "userLogs",
      "outputs": [
        {
          "internalType": "address",
          "name": "victim",
          "type": "address"
        },
        {
          "internalType": "address",
          "name": "modifiedBy",
          "type": "address"
        },
        {
          "internalType": "string",
          "name": "ipfsHash",
          "type": "string"
        },
        {
          "internalType": "uint256",
          "name": "timestamp",
          "type": "uint256"
        }
      ],
      "stateMutability": "view",
      "type": "function",
      "constant": true
    },
    {
      "inputs": [
        {
          "internalType": "string",
          "name": "name",
          "type": "string"
        },
        {
          "internalType": "string",
          "name": "location",
          "type": "string"
        },
        {
          "internalType": "bool",
          "name": "accredited",
          "type": "bool"
        }
      ],
      "name": "updateUniversity",
      "outputs": [],
      "stateMutability": "nonpayable",
      "type": "function"
    },
    {
      "inputs": [
        {
          "internalType": "address",
          "name": "wallet",
          "type": "address"
        },
        {
          "internalType": "string",
          "name": "ipfsHash",
          "type": "string"
        },
        {
          "internalType": "string",
          "name": "docHash",
          "type": "string"
        },
        {
          "internalType": "string",
          "name": "employeeID",
          "type": "string"
        }
      ],
      "name": "addStaff",
      "outputs": [],
      "stateMutability": "nonpayable",
      "type": "function"
    },
    {
      "inputs": [
        {
          "internalType": "address",
          "name": "wallet",
          "type": "address"
        },
        {
          "internalType": "string",
          "name": "ipfsHash",
          "type": "string"
        },
        {
          "internalType": "string",
          "name": "docHash",
          "type": "string"
        },
        {
          "internalType": "string",
          "name": "rollNo",
          "type": "string"
        }
      ],
      "name": "addStudent",
      "outputs": [],
      "stateMutability": "nonpayable",
      "type": "function"
    },
    {
      "inputs": [
        {
          "internalType": "string",
          "name": "employeeID",
          "type": "string"
        }
      ],
      "name": "getStaffByEmployeeID",
      "outputs": [
        {
          "components": [
            {
              "internalType": "address",
              "name": "wallet",
              "type": "address"
            },
            {
              "internalType": "string",
              "name": "ipfsHash",
              "type": "string"
            },
            {
              "internalType": "string",
              "name": "docHash",
              "type": "string"
            },
            {
              "internalType": "string",
              "name": "employeeID",
              "type": "string"
            }
          ],
          "internalType": "struct UniversityManagement.Staff",
          "name": "",
          "type": "tuple"
        }
      ],
      "stateMutability": "view",
      "type": "function",
      "constant": true
    },
    {
      "inputs": [
        {
          "internalType": "string",
          "name": "rollNo",
          "type": "string"
        }
      ],
      "name": "getStudentByRollNo",
      "outputs": [
        {
          "components": [
            {
              "internalType": "address",
              "name": "wallet",
              "type": "address"
            },
            {
              "internalType": "string",
              "name": "ipfsHash",
              "type": "string"
            },
            {
              "internalType": "string",
              "name": "docHash",
              "type": "string"
            },
            {
              "internalType": "string",
              "name": "rollNo",
              "type": "string"
            }
          ],
          "internalType": "struct UniversityManagement.Student",
          "name": "",
          "type": "tuple"
        }
      ],
      "stateMutability": "view",
      "type": "function",
      "constant": true
    },
    {
      "inputs": [
        {
          "internalType": "address",
          "name": "target",
          "type": "address"
        },
        {
          "internalType": "string",
          "name": "ipfsHash",
          "type": "string"
        },
        {
          "internalType": "string",
          "name": "docHash",
          "type": "string"
        },
        {
          "internalType": "string",
          "name": "employeeID",
          "type": "string"
        }
      ],
      "name": "updateStaff",
      "outputs": [],
      "stateMutability": "nonpayable",
      "type": "function"
    },
    {
      "inputs": [
        {
          "internalType": "address",
          "name": "target",
          "type": "address"
        },
        {
          "internalType": "string",
          "name": "ipfsHash",
          "type": "string"
        },
        {
          "internalType": "string",
          "name": "docHash",
          "type": "string"
        },
        {
          "internalType": "string",
          "name": "rollNo",
          "type": "string"
        }
      ],
      "name": "updateStudent",
      "outputs": [],
      "stateMutability": "nonpayable",
      "type": "function"
    },
    {
      "inputs": [
        {
          "internalType": "address",
          "name": "wallet",
          "type": "address"
        }
      ],
      "name": "getStaff",
      "outputs": [
        {
          "components": [
            {
              "internalType": "address",
              "name": "wallet",
              "type": "address"
            },
            {
              "internalType": "string",
              "name": "ipfsHash",
              "type": "string"
            },
            {
              "internalType": "string",
              "name": "docHash",
              "type": "string"
            },
            {
              "internalType": "string",
              "name": "employeeID",
              "type": "string"
            }
          ],
          "internalType": "struct UniversityManagement.Staff",
          "name": "",
          "type": "tuple"
        }
      ],
      "stateMutability": "view",
      "type": "function",
      "constant": true
    },
    {
      "inputs": [
        {
          "internalType": "address",
          "name": "wallet",
          "type": "address"
        }
      ],
      "name": "getStudent",
      "outputs": [
        {
          "components": [
            {
              "internalType": "address",
              "name": "wallet",
              "type": "address"
            },
            {
              "internalType": "string",
              "name": "ipfsHash",
              "type": "string"
            },
            {
              "internalType": "string",
              "name": "docHash",
              "type": "string"
            },
            {
              "internalType": "string",
              "name": "rollNo",
              "type": "string"
            }
          ],
          "internalType": "struct UniversityManagement.Student",
          "name": "",
          "type": "tuple"
        }
      ],
      "stateMutability": "view",
      "type": "function",
      "constant": true
    },
    {
      "inputs": [
        {
          "internalType": "address",
          "name": "wallet",
          "type": "address"
        }
      ],
      "name": "isAdmin",
      "outputs": [
        {
          "internalType": "bool",
          "name": "",
          "type": "bool"
        }
      ],
      "stateMutability": "view",
      "type": "function",
      "constant": true
    },
    {
      "inputs": [
        {
          "internalType": "address",
          "name": "wallet",
          "type": "address"
        }
      ],
      "name": "isStaff",
      "outputs": [
        {
          "internalType": "bool",
          "name": "",
          "type": "bool"
        }
      ],
      "stateMutability": "view",
      "type": "function",
      "constant": true
    },
    {
      "inputs": [
        {
          "internalType": "address",
          "name": "wallet",
          "type": "address"
        }
      ],
      "name": "isStudent",
      "outputs": [
        {
          "internalType": "bool",
          "name": "",
          "type": "bool"
        }
      ],
      "stateMutability": "view",
      "type": "function",
      "constant": true
    },
    {
      "inputs": [
        {
          "internalType": "address",
          "name": "victim",
          "type": "address"
        },
        {
          "internalType": "string",
          "name": "ipfsHash",
          "type": "string"
        }
      ],
      "name": "addLog",
      "outputs": [],
      "stateMutability": "nonpayable",
      "type": "function"
    },
    {
      "inputs": [
        {
          "internalType": "address",
          "name": "victimAddress",
          "type": "address"
        }
      ],
      "name": "getLogs",
      "outputs": [
        {
          "components": [
            {
              "internalType": "address",
              "name": "victim",
              "type": "address"
            },
            {
              "internalType": "address",
              "name": "modifiedBy",
              "type": "address"
            },
            {
              "internalType": "string",
              "name": "ipfsHash",
              "type": "string"
            },
            {
              "internalType": "uint256",
              "name": "timestamp",
              "type": "uint256"
            }
          ],
          "internalType": "struct UniversityManagement.Log[]",
          "name": "",
          "type": "tuple[]"
        }
      ],
      "stateMutability": "view",
      "type": "function",
      "constant": true
    }
  ],
  "bytecode": "0x60806040523480156200001157600080fd5b50604051620046ad380380620046ad8339818101604052810190620000379190620002c2565b33600760006101000a81548173ffffffffffffffffffffffffffffffffffffffff021916908373ffffffffffffffffffffffffffffffffffffffff1602179055506040518060600160405280848152602001838152602001821515815250600080820151816000019081620000ad9190620005a7565b506020820151816001019081620000c59190620005a7565b5060408201518160020160006101000a81548160ff0219169083151502179055509050505050506200068e565b6000604051905090565b600080fd5b600080fd5b600080fd5b600080fd5b6000601f19601f8301169050919050565b7f4e487b7100000000000000000000000000000000000000000000000000000000600052604160045260246000fd5b6200015b8262000110565b810181811067ffffffffffffffff821117156200017d576200017c62000121565b5b80604052505050565b600062000192620000f2565b9050620001a0828262000150565b919050565b600067ffffffffffffffff821115620001c357620001c262000121565b5b620001ce8262000110565b9050602081019050919050565b60005b83811015620001fb578082015181840152602081019050620001de565b60008484015250505050565b60006200021e6200021884620001a5565b62000186565b9050828152602081018484840111156200023d576200023c6200010b565b5b6200024a848285620001db565b509392505050565b600082601f8301126200026a576200026962000106565b5b81516200027c84826020860162000207565b91505092915050565b60008115159050919050565b6200029c8162000285565b8114620002a857600080fd5b50565b600081519050620002bc8162000291565b92915050565b600080600060608486031215620002de57620002dd620000fc565b5b600084015167ffffffffffffffff811115620002ff57620002fe62000101565b5b6200030d8682870162000252565b935050602084015167ffffffffffffffff81111562000331576200033062000101565b5b6200033f8682870162000252565b92505060406200035286828701620002ab565b9150509250925092565b600081519050919050565b7f4e487b7100000000000000000000000000000000000000000000000000000000600052602260045260246000fd5b60006002820490506001821680620003af57607f821691505b602082108103620003c557620003c462000367565b5b50919050565b60008190508160005260206000209050919050565b60006020601f8301049050919050565b600082821b905092915050565b6000600883026200042f7fffffffffffffffffffffffffffffffffffffffffffffffffffffffffffffffff82620003f0565b6200043b8683620003f0565b95508019841693508086168417925050509392505050565b6000819050919050565b6000819050919050565b600062000488620004826200047c8462000453565b6200045d565b62000453565b9050919050565b6000819050919050565b620004a48362000467565b620004bc620004b3826200048f565b848454620003fd565b825550505050565b600090565b620004d3620004c4565b620004e081848462000499565b505050565b5b818110156200050857620004fc600082620004c9565b600181019050620004e6565b5050565b601f82111562000557576200052181620003cb565b6200052c84620003e0565b810160208510156200053c578190505b620005546200054b85620003e0565b830182620004e5565b50505b505050565b600082821c905092915050565b60006200057c600019846008026200055c565b1980831691505092915050565b600062000597838362000569565b9150826002028217905092915050565b620005b2826200035c565b67ffffffffffffffff811115620005ce57620005cd62000121565b5b620005da825462000396565b620005e78282856200050c565b600060209050601f8311600181146200061f57600084156200060a578287015190505b62000616858262000589565b86555062000686565b601f1984166200062f86620003cb565b60005b82811015620006595784890151825560018201915060208501945060208101905062000632565b8683101562000679578489015162000675601f89168262000569565b8355505b6001600288020188555050505b505050505050565b61400f806200069e6000396000f3fe608060405234801561001057600080fd5b50600436106101215760003560e01c8063a6c807a9116100ad578063cf9f499911610071578063cf9f49991461036f578063dcad55c01461038b578063ddd79504146103a7578063f42b53cf146103d7578063f851a4401461040757610121565b8063a6c807a91461029d578063ae12894e146102d0578063b7ee0adc146102f0578063ca3757b214610323578063cb510e971461033f57610121565b806357533f01116100f457806357533f01146101aa5780636a6ffec2146101dd5780636b7b44d71461020d57806382f7d3921461023d578063a1c0220b1461026d57610121565b8063105cbcdc146101265780631b7dd0c11461014257806324d7806c1461015e578063422187131461018e575b600080fd5b610140600480360381019061013b9190612e49565b610425565b005b61015c60048036038101906101579190612f04565b610629565b005b61017860048036038101906101739190612f60565b610b99565b6040516101859190612fa8565b60405180910390f35b6101a860048036038101906101a39190612e49565b610bf3565b005b6101c460048036038101906101bf9190612ff9565b610df7565b6040516101d494939291906130d6565b60405180910390f35b6101f760048036038101906101f29190613122565b610f0c565b6040516102049190613235565b60405180910390f35b61022760048036038101906102229190612f60565b6112b4565b60405161023491906132c8565b60405180910390f35b61025760048036038101906102529190612f60565b6115e1565b6040516102649190612fa8565b60405180910390f35b61028760048036038101906102829190613122565b61163b565b60405161029491906132c8565b60405180910390f35b6102b760048036038101906102b29190612f60565b6119e3565b6040516102c794939291906132ea565b60405180910390f35b6102d8611bcb565b6040516102e793929190613344565b60405180910390f35b61030a60048036038101906103059190612f60565b611d00565b60405161031a94939291906132ea565b60405180910390f35b61033d600480360381019061033891906133b5565b611ee8565b005b61035960048036038101906103549190612f60565b611fbf565b6040516103669190612fa8565b60405180910390f35b61038960048036038101906103849190612e49565b612019565b005b6103a560048036038101906103a09190612e49565b61234c565b005b6103c160048036038101906103bc9190612f60565b61267f565b6040516103ce9190613235565b60405180910390f35b6103f160048036038101906103ec9190612f60565b6129ac565b6040516103fe9190613574565b60405180910390f35b61040f612b92565b60405161041c9190613596565b60405180910390f35b600760009054906101000a900473ffffffffffffffffffffffffffffffffffffffff1673ffffffffffffffffffffffffffffffffffffffff163373ffffffffffffffffffffffffffffffffffffffff160361054c576000600460008673ffffffffffffffffffffffffffffffffffffffff1673ffffffffffffffffffffffffffffffffffffffff168152602001908152602001600020905060008160010180546104ce906135e0565b905011610510576040517f08c379a00000000000000000000000000000000000000000000000000000000081526004016105079061365d565b60405180910390fd5b838160010190816105219190613829565b50828160020190816105339190613829565b50818160030190816105459190613829565b5050610623565b8373ffffffffffffffffffffffffffffffffffffffff163373ffffffffffffffffffffffffffffffffffffffff16146105ba576040517f08c379a00000000000000000000000000000000000000000000000000000000081526004016105b190613947565b60405180910390fd5b6000600460003373ffffffffffffffffffffffffffffffffffffffff1673ffffffffffffffffffffffffffffffffffffffff16815260200190815260200160002090508381600101908161060e9190613829565b50818160030190816106209190613829565b50505b50505050565b81600760009054906101000a900473ffffffffffffffffffffffffffffffffffffffff1673ffffffffffffffffffffffffffffffffffffffff163373ffffffffffffffffffffffffffffffffffffffff1614806106b157508073ffffffffffffffffffffffffffffffffffffffff163373ffffffffffffffffffffffffffffffffffffffff16145b6106f0576040517f08c379a00000000000000000000000000000000000000000000000000000000081526004016106e7906139d9565b60405180910390fd5b600060405180608001604052808573ffffffffffffffffffffffffffffffffffffffff1681526020013373ffffffffffffffffffffffffffffffffffffffff168152602001848152602001428152509050600860008573ffffffffffffffffffffffffffffffffffffffff1673ffffffffffffffffffffffffffffffffffffffff16815260200190815260200160002081908060018154018082558091505060019003906000526020600020906004020160009091909190915060008201518160000160006101000a81548173ffffffffffffffffffffffffffffffffffffffff021916908373ffffffffffffffffffffffffffffffffffffffff16021790555060208201518160010160006101000a81548173ffffffffffffffffffffffffffffffffffffffff021916908373ffffffffffffffffffffffffffffffffffffffff160217905550604082015181600201908161084d9190613829565b50606082015181600301555050600a600860008673ffffffffffffffffffffffffffffffffffffffff1673ffffffffffffffffffffffffffffffffffffffff168152602001908152602001600020805490501115610b93576000600190505b600860008673ffffffffffffffffffffffffffffffffffffffff1673ffffffffffffffffffffffffffffffffffffffff16815260200190815260200160002080549050811015610ac357600860008673ffffffffffffffffffffffffffffffffffffffff1673ffffffffffffffffffffffffffffffffffffffff1681526020019081526020016000208181548110610947576109466139f9565b5b9060005260206000209060040201600860008773ffffffffffffffffffffffffffffffffffffffff1673ffffffffffffffffffffffffffffffffffffffff1681526020019081526020016000206001836109a19190613a57565b815481106109b2576109b16139f9565b5b90600052602060002090600402016000820160009054906101000a900473ffffffffffffffffffffffffffffffffffffffff168160000160006101000a81548173ffffffffffffffffffffffffffffffffffffffff021916908373ffffffffffffffffffffffffffffffffffffffff1602179055506001820160009054906101000a900473ffffffffffffffffffffffffffffffffffffffff168160010160006101000a81548173ffffffffffffffffffffffffffffffffffffffff021916908373ffffffffffffffffffffffffffffffffffffffff16021790555060028201816002019081610aa29190613aa1565b50600382015481600301559050508080610abb90613b89565b9150506108ac565b50600860008573ffffffffffffffffffffffffffffffffffffffff1673ffffffffffffffffffffffffffffffffffffffff168152602001908152602001600020805480610b1357610b12613bd1565b5b6001900381819060005260206000209060040201600080820160006101000a81549073ffffffffffffffffffffffffffffffffffffffff02191690556001820160006101000a81549073ffffffffffffffffffffffffffffffffffffffff0219169055600282016000610b869190612bb8565b6003820160009055505090555b50505050565b6000600760009054906101000a900473ffffffffffffffffffffffffffffffffffffffff1673ffffffffffffffffffffffffffffffffffffffff168273ffffffffffffffffffffffffffffffffffffffff16149050919050565b600760009054906101000a900473ffffffffffffffffffffffffffffffffffffffff1673ffffffffffffffffffffffffffffffffffffffff163373ffffffffffffffffffffffffffffffffffffffff1603610d1a576000600360008673ffffffffffffffffffffffffffffffffffffffff1673ffffffffffffffffffffffffffffffffffffffff16815260200190815260200160002090506000816001018054610c9c906135e0565b905011610cde576040517f08c379a0000000000000000000000000000000000000000000000000000000008152600401610cd590613c4c565b60405180910390fd5b83816001019081610cef9190613829565b5082816002019081610d019190613829565b5081816003019081610d139190613829565b5050610df1565b8373ffffffffffffffffffffffffffffffffffffffff163373ffffffffffffffffffffffffffffffffffffffff1614610d88576040517f08c379a0000000000000000000000000000000000000000000000000000000008152600401610d7f90613947565b60405180910390fd5b6000600360003373ffffffffffffffffffffffffffffffffffffffff1673ffffffffffffffffffffffffffffffffffffffff168152602001908152602001600020905083816001019081610ddc9190613829565b5081816003019081610dee9190613829565b50505b50505050565b60086020528160005260406000208181548110610e1357600080fd5b9060005260206000209060040201600091509150508060000160009054906101000a900473ffffffffffffffffffffffffffffffffffffffff16908060010160009054906101000a900473ffffffffffffffffffffffffffffffffffffffff1690806002018054610e83906135e0565b80601f0160208091040260200160405190810160405280929190818152602001828054610eaf906135e0565b8015610efc5780601f10610ed157610100808354040283529160200191610efc565b820191906000526020600020905b815481529060010190602001808311610edf57829003601f168201915b5050505050908060030154905084565b610f14612bf8565b600760009054906101000a900473ffffffffffffffffffffffffffffffffffffffff1673ffffffffffffffffffffffffffffffffffffffff163373ffffffffffffffffffffffffffffffffffffffff1614610fa4576040517f08c379a0000000000000000000000000000000000000000000000000000000008152600401610f9b90613cde565b60405180910390fd5b6000600583604051610fb69190613d3a565b908152602001604051809103902060009054906101000a900473ffffffffffffffffffffffffffffffffffffffff169050600073ffffffffffffffffffffffffffffffffffffffff168173ffffffffffffffffffffffffffffffffffffffff1603611056576040517f08c379a000000000000000000000000000000000000000000000000000000000815260040161104d90613d9d565b60405180910390fd5b600360008273ffffffffffffffffffffffffffffffffffffffff1673ffffffffffffffffffffffffffffffffffffffff1681526020019081526020016000206040518060800160405290816000820160009054906101000a900473ffffffffffffffffffffffffffffffffffffffff1673ffffffffffffffffffffffffffffffffffffffff1673ffffffffffffffffffffffffffffffffffffffff168152602001600182018054611106906135e0565b80601f0160208091040260200160405190810160405280929190818152602001828054611132906135e0565b801561117f5780601f106111545761010080835404028352916020019161117f565b820191906000526020600020905b81548152906001019060200180831161116257829003601f168201915b50505050508152602001600282018054611198906135e0565b80601f01602080910402602001604051908101604052809291908181526020018280546111c4906135e0565b80156112115780601f106111e657610100808354040283529160200191611211565b820191906000526020600020905b8154815290600101906020018083116111f457829003601f168201915b5050505050815260200160038201805461122a906135e0565b80601f0160208091040260200160405190810160405280929190818152602001828054611256906135e0565b80156112a35780601f10611278576101008083540402835291602001916112a3565b820191906000526020600020905b81548152906001019060200180831161128657829003601f168201915b505050505081525050915050919050565b6112bc612c36565b81600760009054906101000a900473ffffffffffffffffffffffffffffffffffffffff1673ffffffffffffffffffffffffffffffffffffffff163373ffffffffffffffffffffffffffffffffffffffff16148061134457508073ffffffffffffffffffffffffffffffffffffffff163373ffffffffffffffffffffffffffffffffffffffff16145b611383576040517f08c379a000000000000000000000000000000000000000000000000000000000815260040161137a906139d9565b60405180910390fd5b600460008473ffffffffffffffffffffffffffffffffffffffff1673ffffffffffffffffffffffffffffffffffffffff1681526020019081526020016000206040518060800160405290816000820160009054906101000a900473ffffffffffffffffffffffffffffffffffffffff1673ffffffffffffffffffffffffffffffffffffffff1673ffffffffffffffffffffffffffffffffffffffff168152602001600182018054611433906135e0565b80601f016020809104026020016040519081016040528092919081815260200182805461145f906135e0565b80156114ac5780601f10611481576101008083540402835291602001916114ac565b820191906000526020600020905b81548152906001019060200180831161148f57829003601f168201915b505050505081526020016002820180546114c5906135e0565b80601f01602080910402602001604051908101604052809291908181526020018280546114f1906135e0565b801561153e5780601f106115135761010080835404028352916020019161153e565b820191906000526020600020905b81548152906001019060200180831161152157829003601f168201915b50505050508152602001600382018054611557906135e0565b80601f0160208091040260200160405190810160405280929190818152602001828054611583906135e0565b80156115d05780601f106115a5576101008083540402835291602001916115d0565b820191906000526020600020905b8154815290600101906020018083116115b357829003601f168201915b505050505081525050915050919050565b600080600460008473ffffffffffffffffffffffffffffffffffffffff1673ffffffffffffffffffffffffffffffffffffffff1681526020019081526020016000206001018054611631906135e0565b9050119050919050565b611643612c36565b600760009054906101000a900473ffffffffffffffffffffffffffffffffffffffff1673ffffffffffffffffffffffffffffffffffffffff163373ffffffffffffffffffffffffffffffffffffffff16146116d3576040517f08c379a00000000000000000000000000000000000000000000000000000000081526004016116ca90613cde565b60405180910390fd5b60006006836040516116e59190613d3a565b908152602001604051809103902060009054906101000a900473ffffffffffffffffffffffffffffffffffffffff169050600073ffffffffffffffffffffffffffffffffffffffff168173ffffffffffffffffffffffffffffffffffffffff1603611785576040517f08c379a000000000000000000000000000000000000000000000000000000000815260040161177c90613e09565b60405180910390fd5b600460008273ffffffffffffffffffffffffffffffffffffffff1673ffffffffffffffffffffffffffffffffffffffff1681526020019081526020016000206040518060800160405290816000820160009054906101000a900473ffffffffffffffffffffffffffffffffffffffff1673ffffffffffffffffffffffffffffffffffffffff1673ffffffffffffffffffffffffffffffffffffffff168152602001600182018054611835906135e0565b80601f0160208091040260200160405190810160405280929190818152602001828054611861906135e0565b80156118ae5780601f10611883576101008083540402835291602001916118ae565b820191906000526020600020905b81548152906001019060200180831161189157829003601f168201915b505050505081526020016002820180546118c7906135e0565b80601f01602080910402602001604051908101604052809291908181526020018280546118f3906135e0565b80156119405780601f1061191557610100808354040283529160200191611940565b820191906000526020600020905b81548152906001019060200180831161192357829003601f168201915b50505050508152602001600382018054611959906135e0565b80601f0160208091040260200160405190810160405280929190818152602001828054611985906135e0565b80156119d25780601f106119a7576101008083540402835291602001916119d2565b820191906000526020600020905b8154815290600101906020018083116119b557829003601f168201915b505050505081525050915050919050565b60046020528060005260406000206000915090508060000160009054906101000a900473ffffffffffffffffffffffffffffffffffffffff1690806001018054611a2c906135e0565b80601f0160208091040260200160405190810160405280929190818152602001828054611a58906135e0565b8015611aa55780601f10611a7a57610100808354040283529160200191611aa5565b820191906000526020600020905b815481529060010190602001808311611a8857829003601f168201915b505050505090806002018054611aba906135e0565b80601f0160208091040260200160405190810160405280929190818152602001828054611ae6906135e0565b8015611b335780601f10611b0857610100808354040283529160200191611b33565b820191906000526020600020905b815481529060010190602001808311611b1657829003601f168201915b505050505090806003018054611b48906135e0565b80601f0160208091040260200160405190810160405280929190818152602001828054611b74906135e0565b8015611bc15780601f10611b9657610100808354040283529160200191611bc1565b820191906000526020600020905b815481529060010190602001808311611ba457829003601f168201915b5050505050905084565b6000806000018054611bdc906135e0565b80601f0160208091040260200160405190810160405280929190818152602001828054611c08906135e0565b8015611c555780601f10611c2a57610100808354040283529160200191611c55565b820191906000526020600020905b815481529060010190602001808311611c3857829003601f168201915b505050505090806001018054611c6a906135e0565b80601f0160208091040260200160405190810160405280929190818152602001828054611c96906135e0565b8015611ce35780601f10611cb857610100808354040283529160200191611ce3565b820191906000526020600020905b815481529060010190602001808311611cc657829003601f168201915b5050505050908060020160009054906101000a900460ff16905083565b60036020528060005260406000206000915090508060000160009054906101000a900473ffffffffffffffffffffffffffffffffffffffff1690806001018054611d49906135e0565b80601f0160208091040260200160405190810160405280929190818152602001828054611d75906135e0565b8015611dc25780601f10611d9757610100808354040283529160200191611dc2565b820191906000526020600020905b815481529060010190602001808311611da557829003601f168201915b505050505090806002018054611dd7906135e0565b80601f0160208091040260200160405190810160405280929190818152602001828054611e03906135e0565b8015611e505780601f10611e2557610100808354040283529160200191611e50565b820191906000526020600020905b815481529060010190602001808311611e3357829003601f168201915b505050505090806003018054611e65906135e0565b80601f0160208091040260200160405190810160405280929190818152602001828054611e91906135e0565b8015611ede5780601f10611eb357610100808354040283529160200191611ede565b820191906000526020600020905b815481529060010190602001808311611ec157829003601f168201915b5050505050905084565b600760009054906101000a900473ffffffffffffffffffffffffffffffffffffffff1673ffffffffffffffffffffffffffffffffffffffff163373ffffffffffffffffffffffffffffffffffffffff1614611f78576040517f08c379a0000000000000000000000000000000000000000000000000000000008152600401611f6f90613cde565b60405180910390fd5b82600080019081611f899190613829565b508160006001019081611f9c9190613829565b5080600060020160006101000a81548160ff021916908315150217905550505050565b600080600360008473ffffffffffffffffffffffffffffffffffffffff1673ffffffffffffffffffffffffffffffffffffffff168152602001908152602001600020600101805461200f906135e0565b9050119050919050565b600760009054906101000a900473ffffffffffffffffffffffffffffffffffffffff1673ffffffffffffffffffffffffffffffffffffffff163373ffffffffffffffffffffffffffffffffffffffff16146120a9576040517f08c379a00000000000000000000000000000000000000000000000000000000081526004016120a090613cde565b60405180910390fd5b6000600460008673ffffffffffffffffffffffffffffffffffffffff1673ffffffffffffffffffffffffffffffffffffffff16815260200190815260200160002060010180546120f8906135e0565b90501461213a576040517f08c379a000000000000000000000000000000000000000000000000000000000815260040161213190613e75565b60405180910390fd5b600073ffffffffffffffffffffffffffffffffffffffff166006826040516121629190613d3a565b908152602001604051809103902060009054906101000a900473ffffffffffffffffffffffffffffffffffffffff1673ffffffffffffffffffffffffffffffffffffffff16146121e7576040517f08c379a00000000000000000000000000000000000000000000000000000000081526004016121de90613ee1565b60405180910390fd5b60405180608001604052808573ffffffffffffffffffffffffffffffffffffffff16815260200184815260200183815260200182815250600460008673ffffffffffffffffffffffffffffffffffffffff1673ffffffffffffffffffffffffffffffffffffffff16815260200190815260200160002060008201518160000160006101000a81548173ffffffffffffffffffffffffffffffffffffffff021916908373ffffffffffffffffffffffffffffffffffffffff16021790555060208201518160010190816122b99190613829565b5060408201518160020190816122cf9190613829565b5060608201518160030190816122e59190613829565b50905050836006826040516122fa9190613d3a565b908152602001604051809103902060006101000a81548173ffffffffffffffffffffffffffffffffffffffff021916908373ffffffffffffffffffffffffffffffffffffffff16021790555050505050565b600760009054906101000a900473ffffffffffffffffffffffffffffffffffffffff1673ffffffffffffffffffffffffffffffffffffffff163373ffffffffffffffffffffffffffffffffffffffff16146123dc576040517f08c379a00000000000000000000000000000000000000000000000000000000081526004016123d390613cde565b60405180910390fd5b6000600360008673ffffffffffffffffffffffffffffffffffffffff1673ffffffffffffffffffffffffffffffffffffffff168152602001908152602001600020600101805461242b906135e0565b90501461246d576040517f08c379a000000000000000000000000000000000000000000000000000000000815260040161246490613f4d565b60405180910390fd5b600073ffffffffffffffffffffffffffffffffffffffff166005826040516124959190613d3a565b908152602001604051809103902060009054906101000a900473ffffffffffffffffffffffffffffffffffffffff1673ffffffffffffffffffffffffffffffffffffffff161461251a576040517f08c379a000000000000000000000000000000000000000000000000000000000815260040161251190613fb9565b60405180910390fd5b60405180608001604052808573ffffffffffffffffffffffffffffffffffffffff16815260200184815260200183815260200182815250600360008673ffffffffffffffffffffffffffffffffffffffff1673ffffffffffffffffffffffffffffffffffffffff16815260200190815260200160002060008201518160000160006101000a81548173ffffffffffffffffffffffffffffffffffffffff021916908373ffffffffffffffffffffffffffffffffffffffff16021790555060208201518160010190816125ec9190613829565b5060408201518160020190816126029190613829565b5060608201518160030190816126189190613829565b509050508360058260405161262d9190613d3a565b908152602001604051809103902060006101000a81548173ffffffffffffffffffffffffffffffffffffffff021916908373ffffffffffffffffffffffffffffffffffffffff16021790555050505050565b612687612bf8565b81600760009054906101000a900473ffffffffffffffffffffffffffffffffffffffff1673ffffffffffffffffffffffffffffffffffffffff163373ffffffffffffffffffffffffffffffffffffffff16148061270f57508073ffffffffffffffffffffffffffffffffffffffff163373ffffffffffffffffffffffffffffffffffffffff16145b61274e576040517f08c379a0000000000000000000000000000000000000000000000000000000008152600401612745906139d9565b60405180910390fd5b600360008473ffffffffffffffffffffffffffffffffffffffff1673ffffffffffffffffffffffffffffffffffffffff1681526020019081526020016000206040518060800160405290816000820160009054906101000a900473ffffffffffffffffffffffffffffffffffffffff1673ffffffffffffffffffffffffffffffffffffffff1673ffffffffffffffffffffffffffffffffffffffff1681526020016001820180546127fe906135e0565b80601f016020809104026020016040519081016040528092919081815260200182805461282a906135e0565b80156128775780601f1061284c57610100808354040283529160200191612877565b820191906000526020600020905b81548152906001019060200180831161285a57829003601f168201915b50505050508152602001600282018054612890906135e0565b80601f01602080910402602001604051908101604052809291908181526020018280546128bc906135e0565b80156129095780601f106128de57610100808354040283529160200191612909565b820191906000526020600020905b8154815290600101906020018083116128ec57829003601f168201915b50505050508152602001600382018054612922906135e0565b80601f016020809104026020016040519081016040528092919081815260200182805461294e906135e0565b801561299b5780601f106129705761010080835404028352916020019161299b565b820191906000526020600020905b81548152906001019060200180831161297e57829003601f168201915b505050505081525050915050919050565b6060600860008373ffffffffffffffffffffffffffffffffffffffff1673ffffffffffffffffffffffffffffffffffffffff168152602001908152602001600020805480602002602001604051908101604052809291908181526020016000905b82821015612b8757838290600052602060002090600402016040518060800160405290816000820160009054906101000a900473ffffffffffffffffffffffffffffffffffffffff1673ffffffffffffffffffffffffffffffffffffffff1673ffffffffffffffffffffffffffffffffffffffff1681526020016001820160009054906101000a900473ffffffffffffffffffffffffffffffffffffffff1673ffffffffffffffffffffffffffffffffffffffff1673ffffffffffffffffffffffffffffffffffffffff168152602001600282018054612aec906135e0565b80601f0160208091040260200160405190810160405280929190818152602001828054612b18906135e0565b8015612b655780601f10612b3a57610100808354040283529160200191612b65565b820191906000526020600020905b815481529060010190602001808311612b4857829003601f168201915b5050505050815260200160038201548152505081526020019060010190612a0d565b505050509050919050565b600760009054906101000a900473ffffffffffffffffffffffffffffffffffffffff1681565b508054612bc4906135e0565b6000825580601f10612bd65750612bf5565b601f016020900490600052602060002090810190612bf49190612c74565b5b50565b6040518060800160405280600073ffffffffffffffffffffffffffffffffffffffff1681526020016060815260200160608152602001606081525090565b6040518060800160405280600073ffffffffffffffffffffffffffffffffffffffff1681526020016060815260200160608152602001606081525090565b5b80821115612c8d576000816000905550600101612c75565b5090565b6000604051905090565b600080fd5b600080fd5b600073ffffffffffffffffffffffffffffffffffffffff82169050919050565b6000612cd082612ca5565b9050919050565b612ce081612cc5565b8114612ceb57600080fd5b50565b600081359050612cfd81612cd7565b92915050565b600080fd5b600080fd5b6000601f19601f8301169050919050565b7f4e487b7100000000000000000000000000000000000000000000000000000000600052604160045260246000fd5b612d5682612d0d565b810181811067ffffffffffffffff82111715612d7557612d74612d1e565b5b80604052505050565b6000612d88612c91565b9050612d948282612d4d565b919050565b600067ffffffffffffffff821115612db457612db3612d1e565b5b612dbd82612d0d565b9050602081019050919050565b82818337600083830152505050565b6000612dec612de784612d99565b612d7e565b905082815260208101848484011115612e0857612e07612d08565b5b612e13848285612dca565b509392505050565b600082601f830112612e3057612e2f612d03565b5b8135612e40848260208601612dd9565b91505092915050565b60008060008060808587031215612e6357612e62612c9b565b5b6000612e7187828801612cee565b945050602085013567ffffffffffffffff811115612e9257612e91612ca0565b5b612e9e87828801612e1b565b935050604085013567ffffffffffffffff811115612ebf57612ebe612ca0565b5b612ecb87828801612e1b565b925050606085013567ffffffffffffffff811115612eec57612eeb612ca0565b5b612ef887828801612e1b565b91505092959194509250565b60008060408385031215612f1b57612f1a612c9b565b5b6000612f2985828601612cee565b925050602083013567ffffffffffffffff811115612f4a57612f49612ca0565b5b612f5685828601612e1b565b9150509250929050565b600060208284031215612f7657612f75612c9b565b5b6000612f8484828501612cee565b91505092915050565b60008115159050919050565b612fa281612f8d565b82525050565b6000602082019050612fbd6000830184612f99565b92915050565b6000819050919050565b612fd681612fc3565b8114612fe157600080fd5b50565b600081359050612ff381612fcd565b92915050565b600080604083850312156130105761300f612c9b565b5b600061301e85828601612cee565b925050602061302f85828601612fe4565b9150509250929050565b61304281612cc5565b82525050565b600081519050919050565b600082825260208201905092915050565b60005b83811015613082578082015181840152602081019050613067565b60008484015250505050565b600061309982613048565b6130a38185613053565b93506130b3818560208601613064565b6130bc81612d0d565b840191505092915050565b6130d081612fc3565b82525050565b60006080820190506130eb6000830187613039565b6130f86020830186613039565b818103604083015261310a818561308e565b905061311960608301846130c7565b95945050505050565b60006020828403121561313857613137612c9b565b5b600082013567ffffffffffffffff81111561315657613155612ca0565b5b61316284828501612e1b565b91505092915050565b61317481612cc5565b82525050565b600082825260208201905092915050565b600061319682613048565b6131a0818561317a565b93506131b0818560208601613064565b6131b981612d0d565b840191505092915050565b60006080830160008301516131dc600086018261316b565b50602083015184820360208601526131f4828261318b565b9150506040830151848203604086015261320e828261318b565b91505060608301518482036060860152613228828261318b565b9150508091505092915050565b6000602082019050818103600083015261324f81846131c4565b905092915050565b600060808301600083015161326f600086018261316b565b5060208301518482036020860152613287828261318b565b915050604083015184820360408601526132a1828261318b565b915050606083015184820360608601526132bb828261318b565b9150508091505092915050565b600060208201905081810360008301526132e28184613257565b905092915050565b60006080820190506132ff6000830187613039565b8181036020830152613311818661308e565b90508181036040830152613325818561308e565b90508181036060830152613339818461308e565b905095945050505050565b6000606082019050818103600083015261335e818661308e565b90508181036020830152613372818561308e565b90506133816040830184612f99565b949350505050565b61339281612f8d565b811461339d57600080fd5b50565b6000813590506133af81613389565b92915050565b6000806000606084860312156133ce576133cd612c9b565b5b600084013567ffffffffffffffff8111156133ec576133eb612ca0565b5b6133f886828701612e1b565b935050602084013567ffffffffffffffff81111561341957613418612ca0565b5b61342586828701612e1b565b9250506040613436868287016133a0565b9150509250925092565b600081519050919050565b600082825260208201905092915050565b6000819050602082019050919050565b61347581612fc3565b82525050565b6000608083016000830151613493600086018261316b565b5060208301516134a6602086018261316b565b50604083015184820360408601526134be828261318b565b91505060608301516134d3606086018261346c565b508091505092915050565b60006134ea838361347b565b905092915050565b6000602082019050919050565b600061350a82613440565b613514818561344b565b9350836020820285016135268561345c565b8060005b85811015613562578484038952815161354385826134de565b945061354e836134f2565b925060208a0199505060018101905061352a565b50829750879550505050505092915050565b6000602082019050818103600083015261358e81846134ff565b905092915050565b60006020820190506135ab6000830184613039565b92915050565b7f4e487b7100000000000000000000000000000000000000000000000000000000600052602260045260246000fd5b600060028204905060018216806135f857607f821691505b60208210810361360b5761360a6135b1565b5b50919050565b7f53747564656e7420646f6573206e6f742065786973742e000000000000000000600082015250565b6000613647601783613053565b915061365282613611565b602082019050919050565b600060208201905081810360008301526136768161363a565b9050919050565b60008190508160005260206000209050919050565b60006020601f8301049050919050565b600082821b905092915050565b6000600883026136df7fffffffffffffffffffffffffffffffffffffffffffffffffffffffffffffffff826136a2565b6136e986836136a2565b95508019841693508086168417925050509392505050565b6000819050919050565b600061372661372161371c84612fc3565b613701565b612fc3565b9050919050565b6000819050919050565b6137408361370b565b61375461374c8261372d565b8484546136af565b825550505050565b600090565b61376961375c565b613774818484613737565b505050565b5b818110156137985761378d600082613761565b60018101905061377a565b5050565b601f8211156137dd576137ae8161367d565b6137b784613692565b810160208510156137c6578190505b6137da6137d285613692565b830182613779565b50505b505050565b600082821c905092915050565b6000613800600019846008026137e2565b1980831691505092915050565b600061381983836137ef565b9150826002028217905092915050565b61383282613048565b67ffffffffffffffff81111561384b5761384a612d1e565b5b61385582546135e0565b61386082828561379c565b600060209050601f8311600181146138935760008415613881578287015190505b61388b858261380d565b8655506138f3565b601f1984166138a18661367d565b60005b828110156138c9578489015182556001820191506020850194506020810190506138a4565b868310156138e657848901516138e2601f8916826137ef565b8355505b6001600288020188555050505b505050505050565b7f4f6e6c792073656c662063616e2065646974207468697320646174612e000000600082015250565b6000613931601d83613053565b915061393c826138fb565b602082019050919050565b6000602082019050818103600083015261396081613924565b9050919050565b7f4f6e6c792061646d696e206f7220746865206f776e6572206f6620746869732060008201527f646174612063616e20706572666f726d207468697320616374696f6e00000000602082015250565b60006139c3603c83613053565b91506139ce82613967565b604082019050919050565b600060208201905081810360008301526139f2816139b6565b9050919050565b7f4e487b7100000000000000000000000000000000000000000000000000000000600052603260045260246000fd5b7f4e487b7100000000000000000000000000000000000000000000000000000000600052601160045260246000fd5b6000613a6282612fc3565b9150613a6d83612fc3565b9250828203905081811115613a8557613a84613a28565b5b92915050565b600081549050613a9a816135e0565b9050919050565b818103613aaf575050613b87565b613ab882613a8b565b67ffffffffffffffff811115613ad157613ad0612d1e565b5b613adb82546135e0565b613ae682828561379c565b6000601f831160018114613b155760008415613b03578287015490505b613b0d858261380d565b865550613b80565b601f198416613b238761367d565b9650613b2e8661367d565b60005b82811015613b5657848901548255600182019150600185019450602081019050613b31565b86831015613b735784890154613b6f601f8916826137ef565b8355505b6001600288020188555050505b5050505050505b565b6000613b9482612fc3565b91507fffffffffffffffffffffffffffffffffffffffffffffffffffffffffffffffff8203613bc657613bc5613a28565b5b600182019050919050565b7f4e487b7100000000000000000000000000000000000000000000000000000000600052603160045260246000fd5b7f537461666620646f6573206e6f742065786973742e0000000000000000000000600082015250565b6000613c36601583613053565b9150613c4182613c00565b602082019050919050565b60006020820190508181036000830152613c6581613c29565b9050919050565b7f4f6e6c792061646d696e2063616e20706572666f726d2074686973206163746960008201527f6f6e000000000000000000000000000000000000000000000000000000000000602082015250565b6000613cc8602283613053565b9150613cd382613c6c565b604082019050919050565b60006020820190508181036000830152613cf781613cbb565b9050919050565b600081905092915050565b6000613d1482613048565b613d1e8185613cfe565b9350613d2e818560208601613064565b80840191505092915050565b6000613d468284613d09565b915081905092915050565b7f5374616666206e6f7420666f756e640000000000000000000000000000000000600082015250565b6000613d87600f83613053565b9150613d9282613d51565b602082019050919050565b60006020820190508181036000830152613db681613d7a565b9050919050565b7f53747564656e74206e6f7420666f756e64000000000000000000000000000000600082015250565b6000613df3601183613053565b9150613dfe82613dbd565b602082019050919050565b60006020820190508181036000830152613e2281613de6565b9050919050565b7f53747564656e7420616c7265616479206578697374732e000000000000000000600082015250565b6000613e5f601783613053565b9150613e6a82613e29565b602082019050919050565b60006020820190508181036000830152613e8e81613e52565b9050919050565b7f526f6c6c206e756d62657220616c726561647920696e207573652e0000000000600082015250565b6000613ecb601b83613053565b9150613ed682613e95565b602082019050919050565b60006020820190508181036000830152613efa81613ebe565b9050919050565b7f537461666620616c7265616479206578697374732e0000000000000000000000600082015250565b6000613f37601583613053565b9150613f4282613f01565b602082019050919050565b60006020820190508181036000830152613f6681613f2a565b9050919050565b7f456d706c6f79656520494420616c726561647920696e207573652e0000000000600082015250565b6000613fa3601b83613053565b9150613fae82613f6d565b602082019050919050565b60006020820190508181036000830152613fd281613f96565b905091905056fea264697066735822122047edf5e0a03d6e2e5a8f25ed41c5052ae355e2f26720dfb3cab11e5b99c3479d64736f6c63430008120033",
  "immutableReferences": {},
  "source": "// SPDX-License-Identifier: MIT\r\npragma solidity ^0.8.0;\r\n\r\ncontract UniversityManagement {\r\n    struct University {\r\n        string name;\r\n        string location;\r\n        bool isAccredited;\r\n    }\r\n\r\n    struct Staff {\r\n        address wallet;\r\n        string ipfsHash;\r\n        string docHash;\r\n        string employeeID;\r\n    }\r\n\r\n    struct Student {\r\n        address wallet;\r\n        string ipfsHash;\r\n        string docHash;\r\n        string rollNo;\r\n    }\r\n\r\n    struct Log {\r\n        address victim;\r\n        address modifiedBy;\r\n        string ipfsHash;\r\n        uint256 timestamp;\r\n    }\r\n\r\n    University public university;\r\n    mapping(address => Staff) public staffs;\r\n    mapping(address => Student) public students;\r\n    mapping(string => address) private staffByEmployeeID;\r\n    mapping(string => address) private studentByRollNo;\r\n    address public admin;\r\n\r\n    modifier onlyAdmin() {\r\n        require(msg.sender == admin, \"Only admin can perform this action\");\r\n        _;\r\n    }\r\n\r\n    modifier onlySelfOrAdmin(address wallet) {\r\n        require(\r\n            msg.sender == admin || msg.sender == wallet,\r\n            \"Only admin or the owner of this data can perform this action\"\r\n        );\r\n        _;\r\n    }\r\n\r\n    constructor(string memory uniName, string memory uniLocation, bool accredited) {\r\n        admin = msg.sender;\r\n        university = University(uniName, uniLocation, accredited);\r\n        \r\n    }\r\n\r\n    function updateUniversity(string memory name, string memory location, bool accredited) public onlyAdmin {\r\n        university.name = name;\r\n        university.location = location;\r\n        university.isAccredited = accredited;\r\n        \r\n    }\r\n\r\n    function addStaff(\r\n        address wallet,\r\n        string memory ipfsHash,\r\n        string memory docHash,\r\n        string memory employeeID\r\n    ) public onlyAdmin {\r\n        require(bytes(staffs[wallet].ipfsHash).length == 0, \"Staff already exists.\");\r\n        require(staffByEmployeeID[employeeID] == address(0), \"Employee ID already in use.\");\r\n        staffs[wallet] = Staff(wallet, ipfsHash, docHash, employeeID);\r\n        staffByEmployeeID[employeeID] = wallet;\r\n        \r\n    }\r\n\r\n    function addStudent(\r\n        address wallet,\r\n        string memory ipfsHash,\r\n        string memory docHash,\r\n        string memory rollNo\r\n    ) public onlyAdmin {\r\n        require(bytes(students[wallet].ipfsHash).length == 0, \"Student already exists.\");\r\n        require(studentByRollNo[rollNo] == address(0), \"Roll number already in use.\");\r\n        students[wallet] = Student(wallet, ipfsHash, docHash, rollNo);\r\n        studentByRollNo[rollNo] = wallet;\r\n    }\r\n\r\n    function getStaffByEmployeeID(string memory employeeID) public view onlyAdmin returns (Staff memory) {\r\n        address staffAddress = staffByEmployeeID[employeeID];\r\n        require(staffAddress != address(0), \"Staff not found\");\r\n        return staffs[staffAddress];\r\n    }\r\n\r\n    function getStudentByRollNo(string memory rollNo) public view onlyAdmin returns (Student memory) {\r\n        address studentAddress = studentByRollNo[rollNo];\r\n        require(studentAddress != address(0), \"Student not found\");\r\n        return students[studentAddress];\r\n    }\r\n       function updateStaff(\r\n        address target,\r\n        string memory ipfsHash,\r\n        string memory docHash,\r\n        string memory employeeID\r\n    ) public {\r\n        if (msg.sender == admin) {\r\n            Staff storage staff = staffs[target];\r\n            require(bytes(staff.ipfsHash).length > 0, \"Staff does not exist.\");\r\n            staff.ipfsHash = ipfsHash;\r\n            staff.docHash = docHash;\r\n            staff.employeeID = employeeID;\r\n        } else {\r\n            require(msg.sender == target, \"Only self can edit this data.\");\r\n            Staff storage staff = staffs[msg.sender];\r\n            staff.ipfsHash = ipfsHash;\r\n            staff.employeeID = employeeID;\r\n        }\r\n    }\r\n\r\n    function updateStudent(\r\n        address target,\r\n        string memory ipfsHash,\r\n        string memory docHash,\r\n        string memory rollNo\r\n    ) public {\r\n        if (msg.sender == admin) {\r\n            Student storage student = students[target];\r\n            require(bytes(student.ipfsHash).length > 0, \"Student does not exist.\");\r\n            student.ipfsHash = ipfsHash;\r\n            student.docHash = docHash;\r\n            student.rollNo = rollNo;\r\n        } else {\r\n            require(msg.sender == target, \"Only self can edit this data.\");\r\n            Student storage student = students[msg.sender];\r\n            student.ipfsHash = ipfsHash;\r\n            student.rollNo = rollNo;\r\n        }\r\n    }\r\n\r\n     function getStaff(address wallet) public view onlySelfOrAdmin(wallet) returns (Staff memory) {\r\n        return staffs[wallet];\r\n    }\r\n\r\n    function getStudent(address wallet) public view onlySelfOrAdmin(wallet) returns (Student memory) {\r\n        return students[wallet];\r\n    }\r\n\r\n    function isAdmin(address wallet) public view returns (bool) {\r\n        return wallet == admin;\r\n    }\r\n\r\n    function isStaff(address wallet) public view returns (bool) {\r\n        return bytes(staffs[wallet].ipfsHash).length > 0;\r\n    }\r\n\r\n    function isStudent(address wallet) public view returns (bool) {\r\n        return bytes(students[wallet].ipfsHash).length > 0;\r\n    }\r\n\r\n    \r\n\r\n    mapping(address => Log[]) public userLogs;\r\n\r\n   \r\n\r\n    \r\n\r\n    function addLog(address victim, string memory ipfsHash) public onlySelfOrAdmin(victim) {\r\n        Log memory newLog = Log(victim, msg.sender, ipfsHash, block.timestamp);\r\n        userLogs[victim].push(newLog);\r\n\r\n        if (userLogs[victim].length > 10) {\r\n            for (uint256 i = 1; i < userLogs[victim].length; i++) {\r\n                userLogs[victim][i - 1] = userLogs[victim][i];\r\n            }\r\n            userLogs[victim].pop();\r\n        }\r\n    }\r\n\r\n    function getLogs(address victimAddress) public view returns (Log[] memory) {\r\n        return userLogs[victimAddress];\r\n    }\r\n}\r\n",
  "sourcePath": "D:\\dapp\\contracts\\UniversityManagement.sol",
  "compiler": {
    "name": "solc",
    "version": "0.8.18+commit.87f61d96.Emscripten.clang"
  },
  "schemaVersion": "3.4.16",
  "updatedAt": "2025-03-30T08:37:13.754Z",
  "networkType": "ethereum",
  "devdoc": {
    "kind": "dev",
    "methods": {},
    "version": 1
  },
  "userdoc": {
    "kind": "user",
    "methods": {},
    "version": 1
  }
}